:020000040800F2
:10000000207C0724990300085D590008074B00086D
:10001000A5030008110D0008E16F000800000000B2
:10002000000000000000000000000000BB5F0008AE
:10003000310D0008000000005F590008B56000089D
:10004000B3030008B3030008B3030008B3030008B8
:10005000B3030008B3030008330D0008B30300081E
:100060003D0D0008490D0008B3030008B303000864
:10007000B3030008B3030008B3030008B303000888
:10008000B3030008B3030008B3030008B303000878
:10009000B3030008B3030008B3030008B303000868
:1000A000B3030008B3030008B3030008B303000858
:1000B000B3030008B303000851610008B30300084C
:1000C000B3030008B3030008B3030008B303000838
:1000D000B3030008916F0008B3030008B3030008DE
:1000E000B3030008B303000800000000B3030008D6
:1000F000B3030008B3030008B3030008B303000808
:10010000B3030008B3030008B3030008B3030008F7
:10011000B3030008B3030008B3030008B3030008E7
:10012000B3030008B3030008B3030008B3030008D7
:10013000B3030008B3030008B3030008B3030008C7
:1001400000000000000000000000000000000000AF
:10015000B3030008B3030008B3030008B3030008A7
:10016000B3030008B3030008B3030008B303000897
:10017000B3030008B3030008B30300080000000045
:10018000B3030008B3030008B3030008B303000877
:10019000B3030008B3030008B3030008B303000867
:1001A000B3030008B3030008B3030008B303000857
:1001B000B3030008B3030008B3030008B303000847
:1001C000B3030008B3030008B3030008B303000837
:1001D000B3030008B3030008B3030008B303000827
:1001E000B3030008B3030008B3030008B303000817
:1001F000B3030008B3030008B3030008B303000807
:10020000B3030008B3030008B3030008B3030008F6
:10021000B3030008B3030008B3030008B3030008E6
:10022000B3030008B3030008B30300080000000094
:10023000B3030008B303000800000000B303000884
:10024000B3030008B3030008B3030008B3030008B6
:10025000B3030008B3030008B3030008B3030008A6
:10026000B3030008B3030008B3030008B303000896
:10027000B3030008B3030008B30300080000000044
:10028000B303000800000000B303000800000000F2
:1002900000000000B303000800F002F800F06DF861
:1002A0000AA090E8000C82448344AAF10107DA45D1
:1002B00001D100F062F8AFF2090EBAE80F0013F0B6
:1002C000010F18BFFB1A43F001031847BC8A000056
:1002D000DC8A00000A444FF0000C10F8013B13F0D8
:1002E000070408BF10F8014B1D1108BF10F8015B8F
:1002F000641E05D010F8016B641E01F8016BF9D182
:1003000013F0080F1EBF10F8014BAD1C0C1B09D1D8
:100310006D1E58BF01F801CBFAD505E014F8016B4A
:1003200001F8016B6D1EF9D59142D6D370470000DC
:100330000023002400250026103A28BF78C1FBD8EE
:10034000520728BF30C148BF0B607047642900F0D6
:100350001781752900F01481782900F04D816329F7
:1003600000F0E982732900F0EE82002070471FB58B
:1003700008F08EFA1FBD10B510BD00F017FB114636
:10038000FFF7F5FF06F0E4FE00F035FB03B4FFF7DE
:10039000F2FF03BC06F049FE0948804709480047C0
:1003A000FEE7FEE7FEE7FEE7FEE7FEE7FEE7FEE725
:1003B000FEE7FEE704480549054A064B7047000082
:1003C000BD6000089902000820760724207C0724DD
:1003D000207807242078072453EA020C00F0698073
:1003E0002DE9F04B4FF00006002B1FBFB3FA83F549
:1003F00003FA05F424FA05F65E4012BF1643B2FA7A
:1004000082F502FA05F4C5F120051EBF22FA05FCAB
:1004100044EA0C04203556EA044C4FEA144418BF51
:10042000641C4FF000084FF00009904271EB030C80
:1004300039D3002919BFB1FA81F701FA07F6B0FAEA
:1004400080F700FA07F6C7F120071EBF20FA07FC65
:1004500046EA0C062037B6FBF4FCA7EB0507103F75
:1004600007F01F0BCBF120060CFA0BFB2CFA06F65B
:1004700044BFB3460026202FA4BF5E464FF0000BBA
:100480005BEA060C08BF4FF0010B19EB0B09ABFB45
:10049000027C48EB0608C01B06FB02CC0BFB03CC1E
:1004A00071EB0C01C1E70B46024641464846BDE8E8
:1004B000F08B13B54FF000004FF00001AFF3008058
:1004C000BDE81C40704700000FB4044910B503AAF2
:1004D000029800F03DFA10BC5DF814FB20000024E7
:1004E00070B5044685690068C10601D5302600E074
:1004F0002026C00707D070BDD4E9012130469047BF
:10050000206A401C20626D1EF6D570BD70B5044691
:1005100085690078C00707D170BDD4E9012120208A
:100520009047206A401C20626D1EF6D570BD70B5E4
:100530000C460546012A05D02878800600D5EA69D0
:10054000002302E0012305E05B1C934202D2E05C41
:100550000028F9D1A869E618C01AA861286A1844C9
:1005600028622846FFF7BCFF04E0D5E9012114F812
:10057000010B9047B442F8D32846FFF7C7FF70BD80
:100580002DE9F0410646002410687529314616A56C
:1005900010D0AFF30080002802DA404213A507E034
:1005A00031688A0701D512A502E0490704D511A5D3
:1005B000012401E0AFF3008000210A2206F12407A4
:1005C00009E0B0FBF2FCB0FBF2F302FB1C003030A0
:1005D00078541846491C0028F3D123462A46304651
:1005E000BDE8F04100F044B9000000002D0000001B
:1005F0002B0000002000000070B504460D46214687
:100600001068AFF300802188090502D50F4A7A44AB
:1006100002E00E4A7A440E32002104F1240305E080
:1006200000F00F060009965D5E54491C0028F7D1C2
:1006300020780023000704D5702D02D009B10223D1
:1006400011322046BDE8704000F012B972830000FC
:100650002DE9F05F894604464FF0000ADFF874B1D7
:10066000FB44C0F820A02046E1688847002874D0E9
:10067000252806D0D4E901219047206A401C206239
:10068000F1E700265F462046E168884720280546B6
:1006900007DB312D05D2781910F8200C08B106437C
:1006A000F1E7B00701D526F00406C4F81CA0002726
:1006B000C4F818A02A2D09D0284606F0AFFC38B39C
:1006C00004EB8708303DC8F8185019E059F8041BAE
:1006D000204604EB87029161E1688847012F0546B7
:1006E00018D1E069002820DA26F020061DE0D8F8AD
:1006F000180000EB800005EB40003038C8F8180007
:100700002046E1688847054606F088FC0028EED1BF
:10071000012F0AD02E2D08D12046E16888477F1C82
:100720000546022F46F02006C4DBA069002803DA44
:10073000404246F00106A061F00701D026F0100605
:100740006C2D0BD0682D09D04C2D39D06A2D35D0A9
:10075000742D35D07A2D33D016E038E0E1682F467D
:1007600020468847B842054609D16C2F26D04FF461
:100770008060E168064320468847054604E06C2F08
:100780001AD04FF4807006430DB3A5F1410019282B
:1007900002D8203546F400664A462946204626609F
:1007A0004E46FFF7D3FD80B101280BD0F61D26F091
:1007B000070000F1080956E74020E4E78020D8E769
:1007C0000020D6E706F104094DE7284652E7206AE3
:1007D000BDE8F09F488300004FF000020429C0F0FC
:1007E000128010F0030C00F01B80CCF1040CBCF163
:1007F000020F18BF00F8012BA8BF20F8022BA1EBB5
:100800000C0100F00DB85FEAC17C24BF00F8012B99
:1008100000F8012B48BF00F8012B70474FF0000291
:1008200000B5134694469646203922BFA0E80C50E6
:10083000A0E80C50B1F12001BFF4F7AF090728BFC1
:10084000A0E80C5048BF0CC05DF804EB890028BF3D
:1008500040F8042B08BF704748BF20F8022B11F066
:10086000804F18BF00F8012B7047704770477047E2
:100870002DE9F0470D4699469246044600F12408BA
:100880000168880604D5E06921F01001216000E0CC
:100890000120A84201DD471B00E00027A1697A1969
:1008A00002EB0900081AA0612078C00602D4204695
:1008B000FFF716FE002608E0D4E901211AF8060029
:1008C0009047206A401C761C20624E45F4DB20785D
:1008D000C0060AD52046FFF703FE06E0D4E9012151
:1008E00030209047206A401C2062381EA7F1010783
:1008F000F4DC07E0D4E9012118F805009047206AEC
:10090000401C2062281EA5F10105F3DC2046FFF7FC
:10091000FDFD2078000602D50220BDE8F087012009
:10092000FBE710B5436913B1AFF3008001E0FFF7B7
:10093000FEFD012010BD127800F124010A70002292
:100940004A700122EDE711684FF0FF32E9E700003D
:10095000074B70B50D467B4400F011F8044628465D
:1009600000F020F810B14FF0FF3070BD204670BD90
:10097000DB67000001694A1C02610878704700B516
:100980008FB0CDE901310021059105497944CDE9C8
:10099000031011466846FFF75BFE0FB000BD000074
:1009A000E5FFFFFF007B00F080007047754600F018
:1009B0002BF8AE4605006946534620F007008546F1
:1009C00018B020B5FFF7F6FCBDE820404FF0000658
:1009D0004FF000074FF000084FF0000B21F0070127
:1009E000AC46ACE8C009ACE8C009ACE8C009ACE86A
:1009F000C0098D46704710B50446AFF3008020460D
:100A0000BDE81040FFF7C2BC00487047C07507241E
:100A100000B587B000BF2148006840F002001F49C0
:100A200008600846006800F00200019000BF00BFA7
:100A300000BF0846006840F00400086008460068EF
:100A400000F00400019000BF00BF4FF480500290FE
:100A50000120039004900320059002A9104801F0A2
:100A6000ABF84FF4804002900120039004900320E3
:100A7000059002A90B4801F09FF805F0AFF900F0CE
:100A80002DF901221103064801F0C4F900224FF4A8
:100A90000041044801F0BEF907B000BDE04402582F
:100AA000000402580010025810B50021084606F054
:100AB000E3FA0A2006F00EFB0821002006F0DCFA1B
:100AC0000A2006F007FB0021202006F0D5FA0A20B4
:100AD00006F000FB0121212006F0CEFA0A2006F0E4
:100AE000F9FA41F21441222006F0C6FA0A2006F073
:100AF000F1FA0021232006F0BFFA0A2006F0EAFAF4
:100B000075491E2006F0B8FA0A2006F0E3FA41F60D
:100B10003F711D2006F0B0FA0A2006F0DBFA41F220
:100B20007071012006F0A8FA0A2006F0D3FA41F607
:100B30003E71022006F0A0FA0A2006F0CBFA41F23C
:100B40007071032006F098FA0A2006F0C3FA41F605
:100B50003F71042006F090FA0A2006F0BBFA00214B
:100B6000052006F089FA0A2006F0B4FA40F2CE71A8
:100B7000062006F081FA0A2006F0ACFA02210D20C8
:100B800006F07AFA0A2006F0A5FA40F2CF710E209C
:100B900006F072FA0A2006F09DFA40F2D2710F2098
:100BA00006F06AFA0A2006F095FA40F69F711020C6
:100BB00006F062FA0A2006F08DFA4FF4FA61072077
:100BC00006F05AFA0A2006F085FA40F69E710820CF
:100BD00006F052FA0A2006F07DFA4FF4FA61092075
:100BE00006F04AFA0A2006F075FA40F69F710A20CC
:100BF00006F042FA0A2006F06DFA4FF47A610B20F3
:100C000006F03AFA0A2006F065FA41F26E710C20FD
:100C100006F032FA0A2006F05DFA40F6A2711120C1
:100C200006F02AFA0A2006F055FA41F26F711220F6
:100C300006F022FA0A2006F04DFA41F272711320F2
:100C400006F01AFA0A2006F045FA41F63F71142020
:100C500006F012FA0A2006F03DFA0021152006F0EF
:100C60000BFA0A2006F036FA0021162006F004FAE4
:100C70000A2006F02FFA4FF4FA61172006F0FCF96B
:100C80000A2006F027FA4FF4FA61182006F0F4F96A
:100C90000A2006F01FFA4FF47A61192006F0ECF9E9
:100CA0000A2006F017FA4FF47A611A2006F0E4F9E8
:100CB0000A2006F00FFA41F270711B2006F0DCF9F1
:100CC0000A2006F007FA41F270711C2006F0D4F9F0
:100CD000642006F0FFF910BD0707010010B50B48AE
:100CE0000068006820F001000849096808600021D8
:100CF00006480161416103F029F904480068006871
:100D000040F0010001490968086010BD5804002442
:100D100000BFFEE710B504F0A1FF04F051FF034847
:100D2000006840F004000149086010BD9CEF00E03D
:100D3000704710B5012000F031FF10BD10B54FF421
:100D4000804000F02BFF10BD10B5042000F026FFFE
:100D500010BD000000B587B000BF3148006840F00A
:100D600001002F4908600846006800F0010001906A
:100D700000BF00BF00BF0846006840F08000086068
:100D80000846006800F08000019000BF00BF00BF6F
:100D90000846006840F0100008600846006800F04F
:100DA0001000019000BF00BF012002901D48039079
:100DB0000220049002A91C4800F0FEFE04200290CC
:100DC0001A480390022003900120049002A91848B9
:100DD00000F0F2FE4FF400600290124803900220EF
:100DE000049002A9134800F0E7FE00220221062029
:100DF00001F074F9062001F061F9012202210820B6
:100E000001F06CF9082001F059F90222114609207D
:100E100001F064F9092001F051F907B000BD0000AC
:100E2000E044025800001111000002580000211196
:100E3000001C02580010025830B503461446002228
:100E4000DA680022D1E9000540EA05200D8940EA70
:100E500005400D7B40EA05600243DA60002030BDAA
:100E600030B50346144600229A680022D1E90005F5
:100E700040EA05200D8940EA05400D7B40EA056007
:100E800002439A60002030BD10B50246002313686B
:100E900009480340D1E901042043CC6820430C6990
:100EA00020434C6940EA44208C6940EA44300343C3
:100EB0001360002010BD00008901F0FF30B502462C
:100EC000002300240868012816D013686FF30E036E
:100ED000D1E901052843CD6828430D6928434D69B0
:100EE00028438D692843CD6928430D6A28434D6AFC
:100EF00028430343136019E0136823F4F843D1E94E
:100F0000070528434D6A2843034354686FF30E04D2
:100F1000D1E901052843CD6828430D6928434D696F
:100F200028438D692843044313605460002030BD7A
:100F30000246506940EA410050610020704718B5F0
:100F4000034600200090D1E9000420438C68641E11
:100F500040EA4410CC6840EA4420009000981861B0
:100F6000002018BD70B50346154600220024012D4F
:100F70001FD09A6802F070420868401E4E68761EC4
:100F800040EA06168868401E46EA0026C868401EE9
:100F900046EA0036088A401E46EA0046888A401E15
:100FA00046EA0056087E401E46EA006002439A6008
:100FB00022E09A6811480240C868401E0603888AE9
:100FC000401E46EA00500243DC6804F070440868A2
:100FD000401E4E68761E40EA06168868401E46EAA5
:100FE0000026088A401E46EA0046087E401E46EA61
:100FF000006004439A60DC60002070BDFF0F0FFFAB
:1010000038B504464FF0AA3000900949897901FBB0
:1010100004F004236A46002104F080FC0449897925
:101020006143481C04236A46002104F077FC38BD64
:10103000FC0300242DE9FC4704460D4600275DE033
:101040004FF0000820E001A830490090B1F802906C
:101050004FEAE97109EB91718B102C49897901FBF9
:1010600004F02A46002104F08DFA28494888C11767
:1010700000EB9171BDF80420B2EBA10F00D007E0A6
:1010800008F101001FFA80F8204880794045DADC39
:1010900000BF1E488079404502D10020BDE8FC8792
:1010A000204603F0E1FF064626B1394618A0FFF7B7
:1010B0000BFA21E0681CF8B10020019016E01349FA
:1010C000B1F802904FEAE97109EB91718B100F4969
:1010D0008979BDF8042004FB01200022114604F0A8
:1010E000EBFBBDF80400401C80B2019007488079FA
:1010F000BDF804108842E2DC781C87B2032F9FDB26
:10110000214609A0FFF7E0F90120C7E7FC0300240E
:101110006572726F7220657261736520626C6F63B5
:101120006B3A25640D0A000062616420626C6F6393
:101130006B20636865636B65643A25640D0A000083
:1011400038B50446002000900F49897901FB04F06E
:1011500001236A46002104F05DFA9DF80000FF2893
:1011600010D1094989796143481C01236A4600214D
:1011700004F050FA9DF80000FF2801D1002038BD8E
:101180000120FCE70220FAE7FC0300242DE9FE4FD2
:1011900081460F4692461D4600240020029080465C
:1011A000019000263B488079B9FBF0F839488079F6
:1011B000B9FBF0F100FB1190019000BF404600F038
:1011C000E1F8064633484089B04202D20120BDE82A
:1011D000FE8F00243AE00198844221D305B32D48C4
:1011E0004088C01BA84205D22A484088C01B1FFA6D
:1011F00080FB01E01FFA85FB264ACDF800B092790A
:1012000006FB0241234A927908FB024053463A46C4
:1012100003F03CFD02900027DA44A5EB0B050AE041
:101220001C4A927906FB02411A4A927908FB024055
:1012300003F030FE0290029830B13046FFF7E0FE36
:10124000012000F029F8B9E7601C84B211488079C8
:10125000A042C0DC0F488079A04219D1304600F08E
:1012600099FA404603F000FF00240CE00948406969
:1012700030F81400404504D10649496921F814604A
:1012800005E0601C84B203484089A042EEDC00BF48
:1012900000209CE7FC030024F8B505460026002446
:1012A00006E04FF6FF703049496921F81400641CCC
:1012B0002D484089A042F4D800202B498881002481
:1012C00033E02949897901FB04F004236A460021AF
:1012D00004F0A0F99DF80000FF2809D145B122498A
:1012E00089796143481C01236A46002104F092F980
:1012F0009DF80000FF2813D19DF802009DF803100F
:1013000000EB012618484089B04203D916494969C3
:1013100021F8164014488089401C1349888103E055
:10132000214612A0FFF7D0F8641C0F484089A04264
:10133000C7D800240BE00C48406930F814000A4973
:101340004989884202DB0849CC8104E0641C0648D4
:101350004089A042EFD800BF0348C089642801DA61
:101360000220F8BD0020FCE7FC0300246261642039
:10137000626C6F636B20696E6465783A25640D0A50
:101380000000000070B50546002418484089401E42
:1013900017490968884204D214484089401E1449FC
:1013A000086005F001011248006800F023F80446C7
:1013B000601C90B90D484089401E0D49096888425B
:1013C0000BD90A484089401E0949086005F001010F
:1013D0000748006800F00EF80446601C10B94FF092
:1013E000FF3070BD024804602046FAE7FC03002489
:1013F00034000024F8B505460E4600200090002475
:101400006C1C14E0601E00F00100B0420ED1611EA1
:10141000094A927901FB02F004236A46002104F094
:10142000F9F80098401C08B9601EF8BD641E002C35
:10143000E8D1601EF9E70000FC030024F8B500269F
:1014400000202D498881002417E02046FFF778FE10
:1014500005468DB9204603F007FE05463DB12146FD
:1014600026A0FFF731F82046FFF7CAFD04E0224826
:101470008089401C20498881641C1F484089A04203
:10148000E3D81D48818921A0FFF71EF81A488089FA
:10149000642801DA0120F8BD17488089C0EB4010AC
:1014A00000EB4000642190FBF1F600200090002446
:1014B00015E02046FFF744FE05467DB90E498979BF
:1014C00001FB04F002236A46194604F027FA00984B
:1014D000401C00900098B04200D104E0641C064813
:1014E0004089A042E5D800BF0120FFF7D5FE08B132
:1014F0000220D0E70020CEE7FC03002442616420F4
:10150000626C6F636B3A25640D0A0000676F6F644D
:101510005F626C6F636B6E756D3A25640D0A000037
:1015200010B503F0F9FD08B1012010BD1F48406956
:1015300020B11E484169002005F03CFF1B4840894E
:101540004100002005F048FF184948610A465289C9
:101550005100164A5069FFF73FF91448406908B92D
:101560000120E2E70120FFF797FE044664B110A0D6
:10157000FEF7AAFFFFF762FF0446002C13D012A06B
:10158000FEF7A2FF0220D0E70848418913A0FEF72A
:101590009BFF0648818917A0FEF796FF0348C18983
:1015A00019A0FEF791FF0020BFE70000FC03002414
:1015B000666F726D6174206E616E6420666C61731B
:1015C000682E2E2E0D0A0000666F726D6174206603
:1015D00061696C6564210D0A00000000746F74611C
:1015E0006C20626C6F636B206E756D3A25640D0A1A
:1015F00000000000676F6F6420626C6F636B206E89
:10160000756D3A25640D0A0076616C696420626C20
:101610006F636B206E756D3A25640D0A0000000043
:10162000014600220648C089884202D24FF6FF7068
:1016300070470348406930F811201046F8E7000071
:10164000FC0300242DE9FF4F83B014469A46002680
:10165000002500BF97E04E48408890FBF4F04C49CD
:101660008979484304992944B1FBF0F0029002982B
:10167000FFF7D6FF834646484189594503D80120E4
:1016800007B0BDE8F08F4248408890FBF4F0404935
:101690008979484304992944B1FBF0F200FB121008
:1016A000604301903A4841880198B0FBF1F0384915
:1016B00089790BFB0108364841880198B0FBF1F2AB
:1016C00001FB120932484088A0EB0900B0FBF4F09E
:1016D00087B2AAEB0500B84202D2AAEB050087B296
:1016E00007FB04F083B21FFA89F14046039A03F026
:1016F000FBFD0646032E39D107FB04F083B21FFA27
:1017000089F14046039A03F0EFFD0646032E2DD1E2
:1017100007FB04F31FFA89F14046039AFFF736FDF1
:101720001B488079B8FBF0F0311F0090FFF782FC76
:1017300006467EB916488079B8FBF0F0002100908B
:10174000FFF778FC064612488079B8FBF0F000906D
:1017500003F08AFC4EB10E488079B8FBF0F000909F
:10176000FFF74EFC0120FFF797FD0026042E00D165
:1017700000260EB1022083E7039804FB07000390C4
:10178000781E05446D1C5545FFF465AF002077E7D2
:10179000FC03002438B50446CC20009000250649FF
:1017A000897901FB04F001236A46194604F0B6F872
:1017B0000546284638BD0000FC0300242DE9FF4FF4
:1017C00087B014469A464FF0000B0025681E029021
:1017D00000BFA7E05648408890FBF4F0544989794F
:1017E000484308992944B1FBF0F005900598FFF7AC
:1017F00017FF06464E484189B14203D801200BB07D
:10180000BDE8F08F4A48408890FBF4F04849897958
:10181000484308992944B1FBF0F200FB12106043E1
:101820000390434841880398B0FBF1F0404989791F
:1018300006FB010004903E4841880398B0FBF1F29A
:1018400001FB12093A484088A0EB090080B20690DB
:10185000BDF8180090FBF4F080B20690AAEB0500EA
:1018600087B2BDF81800874201DBBDF8187007FB8E
:1018700004F806A81FFA89F1C8F38F034FF0FF326E
:101880000090049803F07EFE8346BBF1000F01D068
:101890000220B4E7BDF81800B0EB980F09D11FFA89
:1018A00088F31FFA89F1079A049803F043FF8346EF
:1018B00001E04FF0010BBBF1000F07D10298B042DD
:1018C00004D03046FFF766FF83460296BBF1000F57
:1018D00022D0174880791649498848430399401A0D
:1018E000B0FBF4F080B20690AAEB050087B2BDF819
:1018F0001800874201DBBDF8187007FB04F81FFAD7
:1019000089F14346079A0498FFF740FC8346BBF1F0
:10191000000F01D0032072E7781E05440798404469
:1019200007906D1C5545FFF455AF002067E7000098
:10193000FC03002410B504460CB9012010BD94F836
:101940003500022803D0802060650120F6E7344985
:101950002068884205D333492068884201D8012095
:1019600000E00020C0B1042084F835002C49206834
:1019700088420AD32B492068884206D8206800682C
:1019800020F001002168086048E02068006820F02D
:1019900001002168086041E02068006820F00E0026
:1019A000216808601E49206888420AD31D492068C2
:1019B000884206D82068006820F00100216808608D
:1019C00005E02068006820F0010021680860206EB2
:1019D000006820F48070216E086094F85C1001208B
:1019E000884011490860D4E919104860E06E40B1A0
:1019F000E06E006820F48070E16E0860D4E91C108D
:101A0000486000BF002084F8340000BF012084F843
:101A10003500206D10B12046216D884700208DE7EC
:101A200010000240B8040240045402580348006801
:101A300040F0010001490860704700002004005890
:101A400010B50446142005F045FB012C05D0042CEC
:101A500036D0B4F5006F7BD14EE001213D4800F057
:101A6000D1F901282BD13C48007808B9012000E0C9
:101A70000020394908700846007808B9012000E0C4
:101A80000020364908703448007828B101221146F8
:101A9000334800F0BFF904E000220121304800F093
:101AA000B9F92E48007828B1012202212C4800F013
:101AB000B1F904E000220221294800F0ABF947E027
:101AC0000421284800F09EF9A8B92348007808B9F5
:101AD000012000E00020204908700846007828B165
:101AE000012211461E4800F095F904E00022012170
:101AF0001B4800F08FF92BE01B48007890B90121BA
:101B0000002005F0B9FA2C2005F092FA1749086078
:101B10000846016816A0FEF7D7FC13480078401C61
:101B20001149087010480078012810D101210020C7
:101B300005F0A2FA2A2005F07BFA1249086008464F
:101B4000016811A0FEF7C0FC00200749087000BF23
:101B500000BF10BD00000258120000241100002434
:101B600000040258001C0258100000240800002441
:101B7000414645343439302049523A2564200D0A13
:101B8000000000000C000024414645343439302068
:101B90005245443A25640D0A0000000010B5044681
:101BA00004480068204020B1024804602046FFF746
:101BB00047FF10BD88000058F8B502460B460021CB
:101BC000002600240020824D00BFFCE0012707FA18
:101BD00001F61F6807EA0604B4427CD15F68022F51
:101BE00002D05F68122F1AD14FEAD10C02F1200700
:101BF00057F82C004F074FEAD76C0F2707FA0CF75E
:101C0000B8434FEA417C4FEADC6C1F6907FA0CF7D6
:101C100038434FEAD10C02F1200747F82C00106836
:101C20004FEA410C032707FA0CF7B8431F7907F076
:101C300003074FEA410C07FA0CF7384310605F685E
:101C4000012F08D05F68022F05D05F68112F02D0E6
:101C50005F68122F17D190684FEA410C032707FAEB
:101C60000CF7B8434FEA410CDF6807FA0CF738432A
:101C70009060506801278F40B8431F79C7F3001761
:101C80008F4038435060D0684FEA410C032707FA71
:101C90000CF7B8434FEA410C9F6807FA0CF738433A
:101CA000D0605F6807F08057B7F1805F95D100BFC3
:101CB000484F3F6847F00207DFF818C1CCF80070C2
:101CC00067463F6807F00207009700BF00BF424F1A
:101CD0004FEA910C00E075E057F82C008F074FEAAF
:101CE000177C0F2707FA0CF7B8433C4FBA4201D1D3
:101CF00000272DE03A4FBA4201D1012728E0394FA1
:101D0000BA4201D1022723E0374FBA4201D103275B
:101D10001EE0364FBA4201D1042719E0344FBA42CF
:101D200001D1052714E0334FBA4201D106270FE055
:101D3000314FBA4201D107270AE0304FBA4201D1F0
:101D4000082705E02E4FBA4201D1092700E00A27F3
:101D50004FEA817C4FEA1C7C07FA0CF738431E4F90
:101D60004FEA910C47F82C002868A0435F6807F4FD
:101D70008037B7F5803F00D1204328606868A043D2
:101D80005F6807F40037B7F5003F00D12043686073
:101D90004FF0B0473868A0435F6807F48017B7F585
:101DA000801F00D120434FF0B04738607868A043CF
:101DB0005F6807F40017B7F5001F00D120434FF00C
:101DC000B0477860491C1029FFF400AFF8BD00004F
:101DD00080000058F44402580804005800000258DB
:101DE0000004025800080258000C02580010025863
:101DF0000014025800180258001C02580020025813
:101E000000240258024613690B400BB1012000E088
:101E1000002070470AB1018300E041837047000051
:101E2000014800687047000028000024034800684B
:101E300003490978084401490860704728000024D4
:101E40003000002410B5032000F086F90F2000F0C8
:101E500007F808B1012010BD00F08CF80020FAE767
:101E600070B504460E4800784FF47A71B1FBF0F07B
:101E70000C490968B1FBF0F5284602F0D9FB08B11E
:101E8000012070BD102C07D200222146501E00F008
:101E900025F90548046001E00120F2E70020F0E7A1
:101EA00030000024140000242C0000244178154A3E
:101EB00011600178F9B1121D41681160017B0907B9
:101EC000C27A41EA0261827A41EAC241427B41EA36
:101ED0008241827B41EA4241C27B41EA0241427A2D
:101EE00041EA0221027A41EA420102781143054A9D
:101EF0000832116005E00021024A121D1160121D16
:101F00001160704798ED00E000BF00BF00BFBFF355
:101F10005F8F00BF00BF00BF0548006820F480301D
:101F200003490860002002497031086070470000D2
:101F300024ED00E040F001010D4A11600C497039B8
:101F4000096841F480310A4A703A116000BF00BF4D
:101F500000BFBFF34F8F00BF00BF00BF00BF00BF77
:101F600000BFBFF36F8F00BF00BF00BF704700000E
:101F700094ED00E07047000070B504460E4615462B
:101F80000CB9012070BD94F8210028B9002084F814
:101F90002000204600F022F8211D2068FEF774FF83
:101FA0003146D4E90002FEF75BFF2946D4E900027E
:101FB000FEF742FF2068006840F0040021680860D6
:101FC0000548006840F0004003490860012084F89B
:101FD00021000020D6E700000040005210B586B076
:101FE000044600BF3148006840F480502F49086023
:101FF0000846006800F48050009000BF00BF00BF9A
:102000002A480C30006840F0080028490C3108606C
:102010000846006800F00800009000BF00BF00BF45
:102020000846006840F0100008600846006800F0AC
:102030001000009000BF00BF00BF0846006840F0DD
:10204000400008600846006800F04000009000BFB3
:1020500000BF402001900020029001200390032047
:10206000049001A91248FFF7A7FD4FF400700190FA
:102070000220029000200390032004900C20059081
:1020800001A90C48FFF798FD4DF6330001900020A0
:10209000039001A90648FFF78FFD4FF4F06001900F
:1020A00001A90548FFF788FD06B010BDD4440258C9
:1020B000000C025800180258001002580146084649
:1020C000002809DB00F01F0301229A4043099B000E
:1020D00003F1E023C3F8002100BF70472DE9F05F52
:1020E00080460D46164604F07DFF074639462A46CF
:1020F000334601F00700C0F1070ABAF1040F02D914
:102100004FF0040A01E0C0F1070AD14600F1040AC9
:10211000BAF1070F02D24FF0000A01E0A0F1030A62
:10212000D4464FF0010A0AFA09FAAAF1010A0AEAAA
:10213000020A0AFA0CFA4FF0010B0BFA0CFBABF196
:10214000010B0BEA030B4AEA0B042146404604F05C
:1021500051FFBDE8F09F000000BF00F00702064BF2
:1021600019684FF6FF031940044B0B4343EA022161
:10217000014B196000BF70470CED00E00000FA054C
:1021800010B501F067F90949096801F470614FF46D
:10219000807292FAA2F2B2FA82F2D140044A515C01
:1021A000C840044908600846006810BD1844025839
:1021B000CA8800081400002410B501F003F907498B
:1021C000096801F07001102292FAA2F2B2FA82F2CA
:1021D000D140034A515CC84010BD00002044025861
:1021E000CA88000870B5014600220120002300249F
:1021F0009FED811AB0EE410A9FED7F1AF0EE410A81
:102200007E4D2D6805F003027C4D2D68C5F3053029
:102210007A4D2D1D2D6805F01003784D14352D686D
:10222000C5F3CC0515FB03F501EE105AB8EE411AC3
:10223000B0EE410A22B1012A4DD0022A7DD169E0D7
:102240006E4D283D2D68C5F340152DB36B4D283DCF
:102250002D68C5F3C1066A4D25FA06F4B4FBF0F506
:1022600001EE105AF8EE411A9FED661A80EE012A2F
:10227000624D10352D68C5F3080501EE105AB8EE11
:10228000411A32EE011AB7EE002A31EE021A21EE9F
:10229000811AF0EE410A1DE0594DB5FBF0F501EE53
:1022A000105AF8EE411A9FED571A80EE012A534D4D
:1022B00010352D68C5F3080501EE105AB8EE411A25
:1022C00032EE011AB7EE002A31EE021A21EE811A1F
:1022D000F0EE410A5EE04C4DB5FBF0F501EE105A10
:1022E000B8EE412A9FED471AC0EE011A434D103552
:1022F0002D68C5F3080501EE105AB8EE411A31EE0B
:10230000811AF7EE001A31EE211A22EE011AF0EED0
:10231000410A3FE03D4DB5FBF0F501EE105AF8EEF5
:10232000411A9FED381A80EE012A344D10352D6880
:10233000C5F3080501EE105A00E00CE0B8EE411AB2
:1023400032EE011AB7EE002A31EE021A21EE811A9E
:10235000F0EE410A1EE02C4DB5FBF0F501EE105AEF
:10236000B8EE412A9FED271AC0EE011A234D103511
:102370002D68C5F3080501EE105AB8EE411A31EE8A
:10238000811AF7EE001A31EE211A22EE011AF0EE50
:10239000410A00BF00BF194D10352D68C5F3462511
:1023A0006D1C01EE105AB8EE411AC0EE811ABCEE57
:1023B000E11A81ED001A114D10352D68C5F306455F
:1023C0006D1C01EE105AB8EE411AC0EE811ABCEE37
:1023D000E11A81ED011A094D10352D68C5F3066526
:1023E0006D1C01EE105AB8EE411AC0EE811ABCEE17
:1023F000E11A81ED021A70BD000000002844025865
:102400000090D0030000004600093D0040787D01A7
:1024100070B5014600220120002300249FED811A9F
:10242000B0EE410A9FED7F1AF0EE410A7E4D2D6815
:1024300005F003027C4D2D68C5F305507A4D2D1D26
:102440002D6805F48073784D1C352D68C5F3CC05D7
:1024500015FB03F501EE105AB8EE411AB0EE410A31
:1024600022B1012A4DD0022A7DD169E06E4D283D6E
:102470002D68C5F340152DB36B4D283D2D68C5F370
:10248000C1066A4D25FA06F4B4FBF0F501EE105AC8
:10249000F8EE411A9FED661A80EE012A624D18355A
:1024A0002D68C5F3080501EE105AB8EE411A32EE58
:1024B000011AB7EE002A31EE021A21EE811AF0EE6F
:1024C000410A1DE0594DB5FBF0F501EE105AF8EE4A
:1024D000411A9FED571A80EE012A534D18352D6889
:1024E000C5F3080501EE105AB8EE411A32EE011A92
:1024F000B7EE002A31EE021A21EE811AF0EE410AFF
:102500005EE04C4DB5FBF0F501EE105AB8EE412AF5
:102510009FED471AC0EE011A434D18352D68C5F3DB
:10252000080501EE105AB8EE411A31EE811AF7EEA5
:10253000001A31EE211A22EE011AF0EE410A3FE0B4
:102540003D4DB5FBF0F501EE105AF8EE411A9FED46
:10255000381A80EE012A344D18352D68C5F3080568
:1025600001EE105A00E00CE0B8EE411A32EE011A0A
:10257000B7EE002A31EE021A21EE811AF0EE410A7E
:102580001EE02C4DB5FBF0F501EE105AB8EE412AD5
:102590009FED271AC0EE011A234D18352D68C5F39B
:1025A000080501EE105AB8EE411A31EE811AF7EE25
:1025B000001A31EE211A22EE011AF0EE410A00BF94
:1025C00000BF194D18352D68C5F346256D1C01EE69
:1025D000105AB8EE411AC0EE811ABCEEE11A81ED34
:1025E000001A114D18352D68C5F306456D1C01EE16
:1025F000105AB8EE411AC0EE811ABCEEE11A81ED14
:10260000011A094D18352D68C5F306656D1C01EEDC
:10261000105AB8EE411AC0EE811ABCEEE11A81EDF3
:10262000021A70BD00000000284402580090D00338
:102630000000004600093D0040787D012DE9F04191
:10264000044600250026206800F00060B0F1006F0D
:1026500030D1606E48B1B0F5801F0DD0B0F5001FCD
:1026600010D0B0F5401F15D113E0F948006840F4D0
:102670000030F74908600FE00221201D03F070F9D7
:10268000054609E0022104F1240003F001FA0546A1
:1026900002E001E0012500BF00BF55B9EC4824303D
:1026A000006820F44010616E0843E9492431086055
:1026B00000E02E43208800F48070B0F5807F2DD19B
:1026C000606D05281AD2DFE800F0030A1017180021
:1026D000DF48006840F40030DD49086010E0002168
:1026E000201D03F03DF905460AE0002104F1240015
:1026F00003F0CEF9054603E002E001E0012500BF4A
:1027000000BF55B9D2482430006820F00700616D41
:102710000843CF492431086000E02E43208800F4AC
:102720000070B0F5007F33D1A06D802817D003DC96
:1027300040B140281CD10CE0C02817D0B0F5807FF4
:1027400016D114E0C248006840F40030C049086067
:1027500010E00021201D03F003F905460AE00021E6
:1027600004F1240003F094F9054603E002E001E0DF
:10277000012500BF00BF55B9B5482430006820F4DA
:10278000E070A16D0843B2492431086000E02E4397
:10279000208800F48060B0F5806F38D1D4F8A400B0
:1027A000B0F5800F19D004DC50B1B0F5001F1DD179
:1027B0000DE0B0F5C00F17D0B0F5000F16D114E042
:1027C000A348006840F40030A149086010E00021EF
:1027D000201D03F0C5F805460AE0002104F124009D
:1027E00003F056F9054603E002E001E0012500BFD1
:1027F00000BF5DB996482C30006820F46000D4F822
:10280000A410084392492C31086000E02E43208830
:1028100000F40060B0F5006F38D1D4F8A800B0F132
:10282000007F19D004DC50B1B0F1807F1DD10DE0E4
:10283000B0F1407F17D0B0F1806F16D114E084481A
:10284000006840F400308249086010E00021201D3B
:1028500003F086F805460AE0002104F1240003F0A5
:1028600017F9054603E002E001E0012500BF00BFC3
:102870005DB977482C30006820F0E060D4F8A810EB
:10288000084373492C31086000E02E43206800F0B3
:102890000070B0F1007F27D1A06CA0B1102804D047
:1028A000202809D030280FD10CE06948006840F496
:1028B00000306749086009E00221201D03F050F84C
:1028C000054603E002E001E0012500BF00BF55B965
:1028D0005F482030006820F03000A16C08435C495C
:1028E0002031086000E02E43208800F48050B0F5CD
:1028F000805F36D1E06DB0F5005F19D004DC50B1D7
:10290000B0F5805F1DD10DE0B0F5405F17D0B0F598
:10291000804F16D114E04E48006840F400304C4916
:10292000086010E00021201D03F01AF805460AE0B7
:10293000002104F1240003F0ABF8054603E002E0B7
:1029400001E0012500BF00BF55B9414824300068AF
:1029500020F4E040E16D08433D492431086000E087
:102960002E43208800F40050B0F5005F34D1206E73
:10297000B0F5403F1DD007DC68B1B0F5803F0BD00B
:10298000B0F5003F18D10DE0B0F5802F12D0B0F5B2
:10299000A02F11D10FE011E00121201D02F0E0FF76
:1029A00005460BE0012104F1240003F071F805460F
:1029B00004E003E002E001E0012500BF00BF55B9DB
:1029C00023482430006820F4E020216E0843204989
:1029D0002431086000E02E43208800F48040B0F5E8
:1029E000804F38D1D4F8AC00B0F1405F1DD007DC87
:1029F00068B1B0F1805F0BD0B0F1005F18D10DE08D
:102A0000B0F1804F12D0B0F1A04F11D10FE011E022
:102A10000121201D02F0A4FF05460BE0012104F175
:102A2000240003F035F8054604E003E002E001E08D
:102A3000012500BF00BF6DB905482C30006820F0AB
:102A4000E040D4F8AC10084301492C31086002E0A2
:102A50002C4402582E43208800F40040B0F5004F6B
:102A600026D1E06E98B1B0F1805F03D0B0F1005F85
:102A70000ED106E0FA48006840F40030F8490860DA
:102A800008E00121201D02F06BFF054602E001E095
:102A9000012500BF00BF55B9F1482430006820F07F
:102AA0004050E16E0843EE492431086000E02E43B7
:102AB000206800F08070B0F1807F27D1606CA0B1F9
:102AC000012804D0022809D003280FD10CE0E448E3
:102AD000006840F40030E249086009E00221201D4E
:102AE00002F03EFF054603E002E001E0012500BFE1
:102AF00000BF55B9DA482030006820F00300616C4F
:102B00000843D7492031086000E02E43206800F4D4
:102B10008000B0F5800F7DD1D248006840F480700D
:102B2000D0490860FFF77CF9074606E0FFF778F91F
:102B3000C01B642801D9032505E0CA48006800F4D9
:102B400080700028F2D000BF8DBBC54844300068BB
:102B500000F44070B4F8B01001F44071884214D011
:102B6000BF484430006820F44078BD4844300068D5
:102B700040F48030BA49443108600846006820F4C7
:102B8000803008600846C0F80080D4F8B000B0F586
:102B9000807F15D1FFF744F9074609E0FFF740F9B8
:102BA000C01B41F28831884202D9032507E038E092
:102BB000AB4844300068C0F340000028EED000BFAE
:102BC0004DBB00BFB4F8B00000F44070B0F5407FDA
:102BD0000ED1A3481C38006820F47C51A24AD4F8D6
:102BE000B000104041EA10109D491C39086007E010
:102BF0009B481C38006820F47C5099491C390860B7
:102C0000974844300068B4F8B010C1F30B01084392
:102C1000934901E006E002E04431086002E02E43FF
:102C200000E02E43207800F0010068B3A06F182860
:102C300019D005DC48B1082808D0102816D10BE0BF
:102C4000202811D0282811D10FE011E00121201DEA
:102C500002F086FE05460BE0012104F1240002F09B
:102C600017FF054604E003E002E001E0012500BF94
:102C700000BF55B97A482830006820F03800A16FAD
:102C8000084377492831086000E02E43207800F09F
:102C90000200022828D1606F062815D2DFE800F074
:102CA00003040A11121311E00121201D02F058FE45
:102CB00005460BE0012104F1240002F0E9FE05467F
:102CC00004E003E002E001E0012500BF00BF55B9C8
:102CD00063482830006820F00700616F08436049AE
:102CE0002831086000E02E43207800F0040004281A
:102CF0002AD1D4F89000062815D2DFE800F00304AA
:102D00000A11121311E00121201D02F029FE0546CF
:102D10000BE0012104F1240002F0BAFE054604E0B4
:102D200003E002E001E0012500BF00BF5DB94C48AF
:102D30002C30006820F00700D4F890100843484970
:102D40002C31086000E02E43207800F0200020287D
:102D500036D1D4F88C00B0F1405F1DD007DC68B1EB
:102D6000B0F1805F0BD0B0F1005F18D10DE0B0F191
:102D7000804F12D0B0F1A04F11D10FE011E000212F
:102D8000201D02F0EDFD05460BE0022104F12400B8
:102D900002F07EFE054604E003E002E001E00125CA
:102DA00000BF00BF5DB92E482830006820F0E04029
:102DB000D4F88C1008432A492831086000E02E43DB
:102DC000207800F04000402836D1D4F89800B0F5C3
:102DD000406F1DD007DC68B1B0F5806F0BD0B0F547
:102DE000006F18D10DE0B0F5805F12D0B0F5A05F94
:102DF00011D10FE011E00021201D02F0B1FD0546C8
:102E00000BE0022104F1240002F042FE054604E03A
:102E100003E002E001E0012500BF00BF5DB91048FA
:102E20002C30006820F4E050D4F8981008430C4986
:102E30002C31086000E02E43207800F080008028CC
:102E40003BD1D4F89C00B0F5C04F24D00EDCA0B12B
:102E5000B0F5005F12D0B0F5804F1FD114E0000034
:102E60002C44025800480258FFFCFF0FB0F5004FF9
:102E700012D0B0F5204F11D10FE011E00021201D3C
:102E800002F06EFD05460BE0022104F1240002F081
:102E9000FFFD054604E003E002E001E0012500BF7C
:102EA00000BF4DB9B248006820F46040D4F89C10CF
:102EB0000843AF49086000E02E43207800F0080086
:102EC000082816D1D4F88000B0F5805F06D1022121
:102ED00004F1240002F0DCFD06430AE0A448001FD0
:102EE000006820F44050D4F880100843A049091F1E
:102EF0000860207800F01000102814D1D4F8940055
:102F0000B0F5807F06D1022104F1240002F0C0FD5B
:102F1000064308E09648006820F44070D4F8941006
:102F2000084393490860206800F40020B0F5002FA2
:102F300026D1D4F8A00030B1B0F5803F09D0B0F56B
:102F4000003F0ED10CE00021201D02F009FD0546D6
:102F500009E0022104F1240002F09AFD054602E096
:102F600001E0012500BF00BF4DB98148006820F491
:102F70004030D4F8A01008437D49086000E02E439B
:102F8000206800F48020B0F5802F2DD1D4F8840083
:102F9000B0F5801F06D0B0F5001F0CD0B0F5401F73
:102FA00011D10FE072482C38006840F400307049AD
:102FB0002C39086009E0012104F1240002F068FDC9
:102FC000054602E001E0012500BF00BF5DB9684889
:102FD000001F006820F44010D4F8841008436449AE
:102FE000091F086000E02E43206800F48030B0F52F
:102FF000803F24D1E06C18B1B0F5803F0FD108E0DC
:103000005B482C38006840F4003059492C3908607E
:1030100007E00221201D02F0A3FC054601E0012586
:1030200000BF00BF55B952480C38006820F480300A
:10303000E16C08434E490C39086000E02E432068DB
:1030400000F00050B0F1005F05D1022104F124002E
:1030500002F01EFD0643206800F40030B0F5003F8A
:1030600027D1E06FA0B1B0F5807F06D0B0F5007F2A
:103070000CD0B0F5407F0CD109E03D482C380068F9
:1030800040F400303A492C39086004E003E002E0E3
:1030900001E0012500BF00BF55B93548001F006899
:1030A00020F44070E16F08433149091F086000E0D7
:1030B0002E43206800F48010B0F5801F09D12C4801
:1030C0000838006820F00040216F0843284908397B
:1030D0000860206800F08050B0F1805F0AD1244879
:1030E0004838006820F48040D4F8B41008432049E0
:1030F00048390860206800F40010B0F5001F09D1BD
:103100001B480838006820F08070A16E08431849F9
:1031100008390860206800F08040B0F1804F11D17C
:1031200000BF13484838006820F40040104948396F
:10313000086008460068D4F8B81008430C494839BC
:10314000086000BF206800F00040B0F1004F09D1D6
:1031500007480C38006820F04050216D08430449AE
:103160000C39086016B90020BDE8F0810120FBE7AA
:103170005844025870B504460D4600268D48006834
:1031800000F00700A8420ED28A48006820F007002D
:103190002843884908600846006800F00700A842F4
:1031A00001D0012070BD207800F00200022807D174
:1031B0008148006820F00F00E16808437E490860FC
:1031C000207800F00100002851D07B48006820F4EE
:1031D0007060A1680843784908606068022807D1D8
:1031E000754818380068C0F34040F8B90120D9E7A5
:1031F0006068032807D1704818380068C0F3406041
:10320000A0B90120CEE76068012807D16A481838C4
:103210000068C0F3002048B90120C3E766481838A9
:103220000068C0F3800008B90120BBE76248083895
:10323000006820F00700616808435F4908390860AA
:10324000FEF7EEFD06466068022811D108E0FEF7A1
:10325000E7FD801B41F28831884201D90320A1E7B4
:1032600055480838006800F038001028EFD13AE0DF
:103270006068032811D108E0FEF7D2FD801B41F2FF
:103280008831884201D903208CE74B480838006810
:1032900000F038001828EFD125E06068012811D12E
:1032A00008E0FEF7BDFD801B41F28831884201D95C
:1032B000032077E740480838006800F03800082805
:1032C000EFD110E008E0FEF7ABFD801B41F2883142
:1032D000884201D9032065E737480838006800F0C4
:1032E00038000028EFD13348006800F00700A842FA
:1032F0000ED93048006820F0070028432D490860A7
:103300000846006800F00700A84201D0012049E704
:10331000207800F00400042807D12748006820F036
:1033200070002169084324490860207800F00800F3
:10333000082809D12048001D006820F0700061694C
:1033400008431D49091D0860207800F0100010286E
:1033500009D11948001D006820F4E060A169084304
:103360001549091D0860207800F02000202809D1A7
:1033700011480830006820F07000E16908430E49E8
:103380000831086000F066F80B49096801F47061C3
:103390004FF4807292FAA2F2B2FA82F2D140074A56
:1033A000515CC840064908600F20FEF759FD002017
:1033B000F8E600000020005218440258CA880008AD
:1033C0001400002410B5FEF7DBFE0949096801F07E
:1033D0000F01012292FAA2F2B2FA82F2D140054A1A
:1033E000515CC840044908600846006810BD0000F0
:1033F00018440258CA8800081800002410B5FFF7C6
:10340000E1FF0749096801F07001102292FAA2F267
:10341000B2FA82F2D140034A515CC84010BD0000AC
:103420001C440258CA88000810B5FFF7CBFF0749B3
:10343000096801F4E0614FF4807292FAA2F2B2FAE4
:1034400082F2D140024A515CC84010BD1C4402586F
:10345000CA88000870B5012500EE905A00220121AB
:1034600000230024DFED861AB0EE610ADFED841A36
:10347000B0EE611A0020834D2D6805F0380535B196
:10348000082D15D0102D15D0182D7CD114E07D4DB0
:10349000103D2D68C5F3401545B17A4D103D2D689E
:1034A000C5F3C106784D25FA06F000E07648E5E060
:1034B0007648E3E07648E1E0724D18352D6805F076
:1034C0000302704D18352D68C5F305116D4D1C357F
:1034D0002D6805F001036B4D24352D68C5F3CC052F
:1034E00015FB03F501EE905AF8EE611AB0EE610A91
:1034F00022B1012A4FD0022A7DD16BE0614D103DEF
:103500002D68C5F340152DB35E4D103D2D68C5F3F4
:10351000C1065D4D25FA06F4B4FBF1F501EE905AB3
:10352000B8EE612ADFED5B1AC0EE212A554D203539
:103530002D68C5F3080501EE905AF8EE611A72EE97
:10354000A11AF7EE002A71EEA21A62EE211AB0EE6D
:10355000611A1FE04C4DB5FBF1F501EE905AB8EE43
:10356000612ADFED4C1AC0EE212A464D20352D6828
:10357000C5F3080501EE905AF8EE611A72EEA11A31
:10358000F7EE002A00E077E071EEA21A62EE211A4F
:10359000B0EE611A5EE03D4DB5FBF1F501EE905ADB
:1035A000B8EE612ADFED3B1AC0EE212A354D2035F9
:1035B0002D68C5F3080501EE905AF8EE611A72EE17
:1035C000A11AF7EE002A71EEA21A62EE211AB0EEED
:1035D000611A3FE02E4DB5FBF1F501EE905AB8EEC1
:1035E000612ADFED2C1AC0EE212A264D20352D68E8
:1035F000C5F3080500E00EE001EE905AF8EE611AFE
:1036000072EEA11AF7EE002A71EEA21A62EE211AEA
:10361000B0EE611A1EE01D4DB5FBF1F501EE905ABA
:10362000F8EE612ADFED1B1A80EE212A154D2035B8
:103630002D68C5F3080501EE905AF8EE611A72EE96
:10364000211AB7EE002A71EE821A62EEA11AB0EECC
:10365000611A00BF00BF0B4D20352D68C5F346250C
:103660006D1C00EE905AF8EE601A81EE212AFCEEF5
:10367000C21A11EE900A01E0044800BF00BF70BDFD
:1036800000000000104402580090D00300093D00E3
:1036900040787D010000004670B504460025207882
:1036A00000F00100002872D0F948006800F03800EE
:1036B00010280CD0F648006800F03800182812D105
:1036C000F3481830006800F0030002280BD1F048DE
:1036D00010380068C0F3404000286DD060680028B2
:1036E0006AD1012070BD00BF6068B0F5803F08D18D
:1036F000E7481038006840F48030E5491039086028
:103700002EE0606868B9E2481038006820F4803024
:10371000DF49103908600846006820F480200860FE
:103720001EE06068B0F5A02F0DD1D94810380068B0
:1037300040F48020D649103908600846006840F4FB
:10374000803008600CE0D2481038006820F48030E7
:10375000CF49103908600846006820F480200860CE
:1037600000BF6068A0B1FEF75BFB054608E0FEF70E
:1037700057FB401B41F28831884201D90320B1E751
:10378000C34810380068C0F340400028EFD013E071
:10379000FEF746FB054608E0FEF742FB401B41F200
:1037A0008831884201D903209CE7B9481038006865
:1037B000C0F340400028EFD1207800F0020002283A
:1037C00047D1B348006800F0380058B1B0480068ED
:1037D00000F0380018283ED1AD481830006800F0DD
:1037E0000300B8BBAA4810380068C0F3800018B1C5
:1037F000E06808B9012075E7A5481038006820F096
:103800001900E1680843A24910390860FEF708FB77
:10381000054606E0FEF704FB401B022801D9032001
:1038200060E79B4810380068C0F380000028F1D0A2
:1038300097480C38006820F47C304FF47C3292FAC0
:10384000A2F2B2FA82F221699140084390490C3900
:1038500008604AE0FFE7E06868B38D481038006808
:1038600020F01900E1680843894910390860FEF723
:10387000D7FA054606E0FEF7D3FA401B022801D925
:1038800003202FE7824810380068C0F3800000282A
:10389000F1D07F480C38006820F47C304FF47C3243
:1038A00092FAA2F2B2FA82F2216991400843784971
:1038B0000C39086019E076481038006820F00100E3
:1038C000734910390860FEF7ABFA054606E0FEF7CB
:1038D000A7FA401B022801D9032003E76C481038DF
:1038E0000068C0F380000028F1D1207800F01000BB
:1038F000102877D16648006800F0380008280CD0FE
:103900006348006800F03800182823D16048183058
:10391000006800F0030001281CD15D4810380068E1
:10392000C0F3002020B1E069802801D00120D9E651
:1039300057480C38006820F0F8404FF0F84292FAEF
:10394000A2F2B2FA82F2216A9140084350490C393E
:10395000086047E0E06958B34D481038006840F00F
:1039600080004B4910390860FEF75AFA054606E018
:10397000FEF756FA401B022801D90320B2E644485C
:1039800010380068C0F300200028F1D040480C38FF
:10399000006820F0F8404FF0F84292FAA2F2B2FA32
:1039A00082F2216A9140084339490C39086019E0D4
:1039B00037481038006820F0800035491039086019
:1039C000FEF72EFA054606E0FEF72AFA401B02280B
:1039D00001D9032086E62E4810380068C0F3002085
:1039E0000028F1D1207800F00800082836D160695D
:1039F000D0B127486430006840F0010024496431A8
:103A00000860FEF70DFA054606E0FEF709FA401BCE
:103A1000022801D9032065E61D4864300068C0F320
:103A200040000028F1D019E019486430006820F007
:103A30000100174964310860FEF7F2F9054606E017
:103A4000FEF7EEF9401B022801D903204AE6104890
:103A500064300068C0F340000028F1D1207800F005
:103A60002000202834D1A069D8B109481038006856
:103A700040F48050064910390860FEF7D1F9054638
:103A800008E0FEF7CDF9401B022803D9032029E600
:103A900010440258AF480068C0F340300028F0D00E
:103AA00016E0AC48006820F48050AA490860FEF790
:103AB000B7F9054606E0FEF7B3F9401B022801D925
:103AC00003200FE6A3480068C0F340300028F2D17D
:103AD000207800F0040004287DD19F48006840F45D
:103AE00080709D490860FEF79BF9054606E0FEF7E9
:103AF00097F9401B642801D90320F3E59648006834
:103B000000F480700028F2D000BFA068012808D11E
:103B100090487030006840F001008E4970310860B4
:103B20002DE0A06868B98B487030006820F0010073
:103B30008849703108600846006820F00400086079
:103B40001DE0A06805280DD182487030006840F063
:103B500004008049703108600846006840F00100A8
:103B600008600CE07B487030006820F00100794963
:103B7000703108600846006820F00400086000BF4B
:103B8000A068A0B1FEF74CF9054608E0FEF748F939
:103B9000401B41F28831884201D90320A2E56D48DB
:103BA00070300068C0F340000028EFD013E0FEF74B
:103BB00037F9054608E0FEF733F9401B41F288313A
:103BC000884201D903208DE5624870300068C0F357
:103BD00040000028EFD1606A00287CD05D4810309A
:103BE000006800F03800182876D0606A022874D186
:103BF0005848006820F0807056490860FEF710F9B8
:103C0000054606E0FEF70CF9401B022801D9032007
:103C100068E550480068C0F340600028F2D100BF5A
:103C2000D4E90A1041EA00104A492831096840F2F3
:103C3000F33291430843474928310860208E401EE3
:103C4000C0F30800616B491E4FF47E4202EA412135
:103C50000843218F491ED20102EA014108433C2159
:103C6000095D491E120202EA0161084339493031F7
:103C7000086000BF081D00684FF6F87188434FF6D2
:103C8000F87292FAA2F2B2FA82F2A16C9140084361
:103C90003049343108602F482C30006820F00C0087
:103CA000216C08432B492C3108600846006820F03D
:103CB0000200616C084327492C31086008460068FF
:103CC00040F4803008600846006840F40030086026
:103CD0000846006802E03BE038E01FE040F4802046
:103CE00008600846006840F0010008601948006854
:103CF00040F0807017490860FEF792F8054606E02C
:103D0000FEF78EF8401B022801D90320EAE411488F
:103D10000068C0F340600028F2D019E00D48006848
:103D200020F080700B490860FEF77AF8054606E03F
:103D3000FEF776F8401B022801D90320D2E405489B
:103D40000068C0F340600028F2D101E00120C9E41E
:103D50000020C7E4004402580048025870B50446E9
:103D60000D460CB9012070BD94F82C0028B9002034
:103D700084F82D00204600F019F8022084F82C0069
:103D8000211D2068FDF79AF82946D4E90002FDF7C5
:103D9000E9F80548006840F0004003490860012048
:103DA00084F82C000020DEE70040005210B586B0F9
:103DB000044600BF4648006840F0020044490860DD
:103DC0000846006800F00200009000BF00BF00BF7E
:103DD0003F482038006840F480503D492039086051
:103DE0000846006800F48050009000BF00BF00BF8C
:103DF00037481438006840F0040035491439086029
:103E00000846006800F00400009000BF00BF00BF3B
:103E10000846006840F0080008600846006800F0A6
:103E20000800009000BF00BF00BF0846006840F0D7
:103E3000100008600846006800F01000009000BF05
:103E400000BF00BF0846006840F020000860084638
:103E5000006800F02000009000BF00BF00BF0846CF
:103E6000006840F0400008600846006800F040002C
:103E7000009000BF00BF0D200190022002900120A1
:103E80000390032004900C20059001A91148FDF730
:103E900093FE4CF20370019001A90F48FDF78CFED0
:103EA0004FF68370019001A90C48FDF785FE4FF68F
:103EB0003F00019001A90A48FDF77EFE48F2371045
:103EC000019001A90748FDF777FE06B010BD00007C
:103ED000F444025800080258000C0258001002581E
:103EE000001402580018025870B504460D4694F8A4
:103EF0002C00022800D170BD022084F82C00294635
:103F00002068FDF715F8012084F82C000020F2E766
:103F100070B504460D46164694F82C00022800D1D0
:103F200070BD022084F82C00324629462068FDF737
:103F300006F82868022803D1052084F82C0002E046
:103F4000012084F82C000020EAE7000070B5044648
:103F5000002500260CB9012070BD606A00B900BFC1
:103F6000A06AB0F5800F00D100BF8E49206888425A
:103F70000CD08D492068884208D08C49206888423E
:103F800004D0E0680F2801D90120E5E7204601F0C0
:103F9000E7FF064683492068884209D082492068A5
:103FA000884205D081492068884201D0082E0DD86A
:103FB0007C492068884207D07B492068884203D02A
:103FC0007A492068884203D1102E01D90120C3E725
:103FD000A06AB0F5800F1DD17249206888420DD0CB
:103FE00071492068884209D070492068884205D00C
:103FF000206BB0F5702F01D90120ADE7206B10B90F
:10400000A089050400E0256BE068B0EB154F01D9ED
:104010000120A1E794F8810028B9002084F88000ED
:10402000204600F0C5F8022084F88100206800686E
:1040300020F0010021680860A069B0F1806F0BD109
:104040006068B0F5800F07D1A06B28B920680068C0
:1040500040F4805021680860A16AE0690843284361
:10406000E16B0843E168084321688860616A606B1E
:104070000843A16B0843A1690843216908436169AA
:104080000843216A084361680843E16C0843A1685A
:104090000843A16C0843A16D08432168C860A06A69
:1040A000B0F5800F4DD1206C012806D12068006842
:1040B00040F400402168086005E02068006820F4B2
:1040C000004021680860606C012806D12068006803
:1040D00040F480402168086005E02068006820F412
:1040E0008040216808602F49206888420AD02E4904
:1040F0002068884206D02D492068884202D0B5F554
:10410000702F0ED027492068884207D026492068A2
:10411000884203D025492068884209D1B5F5F81FA7
:1041200006D12068006840F400502168086005E06E
:104130002068006820F40050216808602168E06A67
:104140000864606888B9A06A38B92068806820F47B
:10415000C05040F40060216888602068806820F4C6
:10416000C06040F48060216888602068006D20F0A5
:10417000010021680865606800F48000B0F5800FD8
:1041800007D12068C06820F00040616D08432168B5
:10419000C8600020C4F88400012084F88100002059
:1041A000DAE600000030014000380040003C0040EA
:1041B00010B5B6B0044600BF1A48006840F00200CF
:1041C000184908600846006800F00200019000BF2E
:1041D00000BF00BF13480830006840F48040114918
:1041E000083108600846006800F48040019000BF74
:1041F00000BF4FF4805002900020199002A8FEF7F3
:104200001DFA4FF46040319002203290012033902B
:10421000032034900520359031A90348FDF7CCFCEC
:1042200036B010BDE0440258000402582DE9F84FA2
:104230000446884691461D460A9E0027BA4600BF9E
:1042400094F88000012802D10220BDE8F88F0120F7
:1042500084F8800000BFFDF7E3FD074694F8810075
:10426000012812D06068B0F5800F05D1A06818B998
:1042700094F88100042808D04FF0020A00BF002003
:1042800084F8800000BF5046DFE7B8F1000F03D08C
:10429000B9F1000F00D045B94FF0010A00BF00206E
:1042A00084F8800000BF5046CFE794F881000428CE
:1042B00002D0052084F881000020C4F88400C4F8EE
:1042C0006490A4F86A50A4F86850C4F85C80A4F81C
:1042D0006250A4F8605020676067206840686FF300
:1042E0000F002843216848602068006840F0010002
:1042F000216808606068B0F5800F05D1206800680B
:1043000040F4007021680860E0680F284CD942E052
:10431000B4F8620088B12068406900F00200022809
:104320000BD1E06D006821680862E06D001DE0655A
:10433000B4F86200401EA4F86200B4F86A0088B1C4
:104340002068406948F20801084058B12068006BB5
:10435000616E0860606E001D6066B4F86A00401E01
:10436000A4F86A00701CB0B1FDF75AFDC01BB04242
:1043700011D3204601F076FD00BF002084F88000B4
:1043800000BFD4F8840040F48070C4F88400012099
:1043900084F8810059E7B4F862000028B8D1B4F875
:1043A0006A000028B4D10FE1E068072871D966E0FF
:1043B000B4F8620020B32068406900F002000228CF
:1043C0001ED1B4F8620001280ED9E06B60B1E06D37
:1043D000006821680862E06D001DE065B4F86200C5
:1043E000801EA4F862000BE0E06D0088216808845C
:1043F000E06D801CE065B4F86200401EA4F8620025
:10440000B4F86A0010B32068406900F46040E8B175
:104410002068406900F4004060B12068006B616E64
:104420000860606E001D6066B4F86A00801EA4F823
:104430006A000BE02068008E616E0880606E801C50
:104440006066B4F86A00401EA4F86A00701CB0B13F
:10445000FDF7E6FCC01BB04211D3204601F002FD7F
:1044600000BF002084F8800000BFD4F8840040F42E
:104470008070C4F88400012084F88100E5E6B4F877
:104480006200002894D1B4F86A00002890D19BE023
:10449000FFE790E0B4F8620058B32068406900F08C
:1044A0000200022833D1B4F8620003280FD9E06B70
:1044B00040280CD9E06D006821680862E06D001D9D
:1044C000E065B4F86200001FA4F862001FE0B4F8D1
:1044D000620001280ED9E06B60B1E06D00882168B0
:1044E0000884E06D801CE065B4F86200801EA4F8CA
:1044F00062000CE0E06D0078216881F82000E06D3A
:10450000401CE065B4F86200401EA4F86200B4F8F4
:104510006A0048B32068406900F4604020B3206816
:10452000406900F4004060B12068006B616E086073
:10453000606E001D6066B4F86A00001FA4F86A008F
:1045400020E02068406900F4C040B0F5005F0CD95D
:104550002068008E616E0880606E801C6066B4F812
:104560006A00801EA4F86A000CE0206890F8300011
:10457000616E0870606E401C6066B4F86A00401E90
:10458000A4F86A00701CB0B1FDF74AFCC01BB04231
:1045900011D3204601F066FC00BF002084F88000A3
:1045A00000BFD4F8840040F48070C4F88400012077
:1045B00084F8810049E6B4F8620000287FF46AAF0D
:1045C000B4F86A000028F9D13B46002208212046B1
:1045D000009601F0D2FC28B1D4F8840040F020000D
:1045E000C4F88400204601F03DFC00BF002084F8A0
:1045F000800000BF012084F88100D4F8840008B155
:10460000012022E6002020E6042808D14FF0E02116
:10461000096941F004014FF0E022116107E04FF019
:10462000E021096921F004014FF0E0221161704797
:1046300070B504462546681EB0F1807F01D3012085
:104640000FE0681E4FF0E02148610F214FF0FF306E
:1046500002F0D0FC00204FF0E021886107200861C3
:10466000002070BD10B504460CB9012010BD94F8AF
:104670003D0028B9002084F83C00204600F00CF8EA
:10468000022084F83D00211D206801F083FD0120F7
:1046900084F83D000020E9E7704701460868C068DB
:1046A00040F001000A68D0600868008840F001000E
:1046B0000A6810800020704770477047014600224A
:1046C000002391F8792091F87A3042EA030070478C
:1046D0002DE9F04104462068C56920680768206814
:1046E000866805F00F08B8F1000F0DD105F0200025
:1046F00050B107F0200010B906F0805020B12046DC
:1047000001F0B7FEBDE8F081B8F1000F72D05D484E
:10471000304018B907F4907000287AD005F00100F5
:1047200048B107F4807030B1012021680862E06F61
:1047300040F00100E06705F0020048B106F001001A
:1047400030B1022021680862E06F40F00400E067A9
:1047500005F0040048B106F0010030B104202168E2
:104760000862E06F40F00200E06705F0080078B1F1
:1047700007F0200028B906F0805010B906F00100BB
:1047800030B1082021680862E06F40F00800E0675F
:10479000E06F70B305F0200040B107F0200010B9C1
:1047A00006F0805010B1204601F063FEE06F00F08B
:1047B000080020B92068806800F0400018B3204647
:1047C00001F037FE2068806800F04000B8B1206832
:1047D000806820F0400021688860606F58B12A48E6
:1047E000616F0865606FFDF7A5F810B1606F016D2E
:1047F00088470DE00DE02046FFF75FFF08E0204608
:10480000FFF75BFF04E02046FFF757FF0020E0675B
:1048100078E705F4801078B106F4800060B14FF4B9
:10482000801021680862202084F8790084F87A00DA
:104830002046FFF741FF65E705F0800048B107F02B
:10484000800010B906F4000018B1204602F028FBE1
:1048500058E705F0400030B107F0400018B120469D
:1048600001F0F7FD4EE705F4000040B107F080408D
:1048700028B12068006820F080402168086000BFEF
:1048800040E70000010000101B64000810B504465A
:104890000CB9012010BDA06900B100E000BF94F880
:1048A000790028B9002084F87800204600F02AF822
:1048B000242084F879002068006820F00100216835
:1048C0000860204601F01AFE012800D1E2E7606B83
:1048D00010B1204601F0F2FC2068406820F49040BE
:1048E000216848602068806820F02A00216888607C
:1048F0002068006840F0010021680860204601F04F
:1049000052FDC7E710B586B00446214920688842A9
:104910003BD100BF1F48006840F001001D490860FE
:104920000846006800F00100009000BF00BF00BF13
:1049300018481030006840F0100016491031086027
:104940000846006800F01000009000BF00BF4FF460
:104950000070019002200290012003900220049038
:104960000720059001A90C48FDF726F94FF4806057
:10497000019001A90848FDF71FF92520FDF79EFBCE
:10498000032211462520FDF7A9FB06B010BD00004B
:1049900000100140E04402580000025810B50346E0
:1049A00093F87A00202867D101B10AB9012010BD1F
:1049B00000BF93F87800012801D10220F7E7012019
:1049C00083F8780000BF5966A3F86820A3F86A202E
:1049D00000BF9868B0F5805F0AD1186920B940F22D
:1049E000FF10A3F86C001CE0FF20A3F86C0018E097
:1049F000986848B9186918B9FF20A3F86C0010E04E
:104A00007F20A3F86C000CE09868B0F1805F08D1BB
:104A1000186918B97F20A3F86C0002E03F20A3F8C2
:104A20006C0000BF0020D867222083F87A0000BF06
:104A3000002083F8780000BF1868806840F001000B
:104A40001C68A0601868006800F0005060B1186829
:104A5000006840F480701C6820601868806840F02E
:104A600080501C68A06005E01868006840F49070F1
:104A70001C68206000209AE7022098E71D4A016820
:104A8000914236D11C49098801F4004189BB1A4979
:104A9000098801F4804171B1184909780A2903D0C5
:104AA0000021154A118024E01349098841F400418E
:104AB000114A11801DE0114909780D2906D10E49CE
:104AC000098841F480410C4A118012E00B490978B1
:104AD000094A1288C2F30D02094B99540649098804
:104AE000491C054A118011460988C72901DD0021AA
:104AF000118070470010014024000024260000248B
:104B000040020024704700BFFEE7000000B587B0F8
:104B100000BF2048006840F001001E4908600846B8
:104B2000006800F00100019000BF00BF00BF084610
:104B3000006840F0800008600846006800F08000CF
:104B4000019000BF00BF01200290002003900220CE
:104B500004900320059002A90F48FDF72DF80C20C2
:104B6000029000200390012004900320059002A9E8
:104B70000A48FDF721F84FF40060029000200390EE
:104B8000022004900320059002A90548FDF714F8BF
:104B900007B000BDE044025800000258001C025853
:104BA0000010025800B587B000BF1248006840F0FE
:104BB0000200104908600846006800F002000190F9
:104BC00000BF00BF03200290012003900490032047
:104BD000059002A90848FCF7EFFF0122114606489C
:104BE000FDF718F9012202210348FDF713F907B078
:104BF00000BD0000E0440258000402580EB5002039
:104C00000121009103230A46CDE901101221480633
:104C100000F00CF801200022CDE90020032302223D
:104C200018210290C80600F001F80EBD2DE9FF47DB
:104C300004460D4616461F46DDE90D9ADDF8308024
:104C4000FDF762F901208DF80000F0B28DF8010047
:104C50000194E8B28DF8080000208DF809008DF865
:104C60000A008DF80B708DF80C008DF80D808DF812
:104C70000E908DF80FA06846FDF718F90420FDF797
:104C800059F9002004B0BDE8F08700002DE9FE4F7F
:104C90008046894617461D460C9C0026002002903F
:104CA000019083460090824676488079B8FBF0F008
:104CB00080B2019073488079B9FBF0F01FFA80FB55
:104CC0005846019901EBD1725210A1EB42020BEB55
:104CD000D0735B10ABEB43039A4202D00120BDE8D6
:104CE000FE8F00206849087068490870087081F8D4
:104CF00000804FEA182008704FEA184008703520ED
:104D000061490870002000F0F7FC06460EB1022051
:104D1000E5E7012000F0F0FC06460EB10220DEE7D8
:104D200085205949087059490F703812087081F868
:104D300000904FEA192008704FEA194008701E20B1
:104D400000F008F9E11704EBD1514912A4EB41211D
:104D500089B10020029009E015F8010B4FF00041E5
:104D60000870BDF80800401C80B20290BDF8080031
:104D7000A042F1DB7AE02046E11704EBD151C1F308
:104D8000472100913846F91707EBD151C1F3472A63
:104D9000002634E03E48006840F040003C4980393D
:104DA000C1F880000020029009E015F8010B4FF0D7
:104DB00000410870BDF80800401C80B20290BDF8A8
:104DC0000800B0F5007FF0DB00BF3148001D00682F
:104DD00000F040000028F8D02D481430016806EBA0
:104DE0000A0228481C3040F8221029488038D0F8A0
:104DF000800020F0400026490860701CC6B2009870
:104E00008642C7DB1F484088103000EB8A0080B222
:104E100002901E2000F09EF885201B490870BDF806
:104E200008001A490870BDF80800001208701E201A
:104E300000F090F813481C3000EB8A050020029027
:104E40000FE0002606E015F8010B4FF00041087056
:104E5000701CC6B2042EF6DBBDF80800401C80B200
:104E60000290BDF8081000988142EADB1020064944
:104E7000087000F025FC402801D001202FE7002019
:104E80002DE70000FC0300240000018000000280E8
:104E9000804000522DE9F04104460D464FF00008D5
:104EA0000026002728488079B4FBF0F086B2264817
:104EB0008079B5FBF0F087B23846314606EBD17207
:104EC0005210A6EB420207EBD0735B10A7EB430333
:104ED0009A4202D00120BDE8F08100201B490870F1
:104EE0001B49087008700C70200A0870200C0870AC
:104EF000352016490870002000F0FEFB8046B8F10E
:104F0000000F01D00220E6E7012000F0F5FB80460B
:104F1000B8F1000F01D00220DDE785200B490870B1
:104F200000200B49087008700D70280A0870280CC2
:104F3000087010200549087000F0C2FB402801D01D
:104F40000120C8E70020C6E7FC0300240000018020
:104F50000000028001B502E00098401E0090009819
:104F60000028F9D108BD00002DE9F74F82B00546B1
:104F7000164600200190002481460120039900F08C
:104F800055F807460020039900F050F88246314654
:104F9000012000F04BF880463146002000F046F832
:104FA000834687EA0A0080EA080080EA0B00019045
:104FB00040F6FF710198884219D187EA080421461A
:104FC0000FA0FBF781FA2046E11704EB51714FEA7D
:104FD000E109E11704EB5171C910A4EBC1020121F1
:104FE000914015F80920514005F8091006E008A085
:104FF000FBF76AFA012005B0BDE8F08F0020FAE760
:105000006572726F72706F733A25640D0A0000004A
:105010003262697420656363206572726F72206FFB
:1050200072206D6F72650D0A0000000030B50246F7
:105030000B460020002113E00C4601EBD4756D10E7
:10504000A1EB4505954209D123FA01F404F00104CE
:1050500024B14D100124AC400444A0B24C1CE1B278
:105060001829E9DB30BD000010B50446104800697E
:105070001049884201D1E40105E00D4800690E495C
:10508000884200D1A40160200C4908700C490C70C2
:10509000200A0870200C0870D0200849087000F021
:1050A0000FFB402801D0012010BD0020FCE70000CC
:1050B000FC03002489260048569590DC00000180FE
:1050C0000000028070B5002400BF0BE02046FFF70F
:1050D000CBFF054625B12A46214605A0FBF7F4F98A
:1050E000601C84B20B484089A042EFDC70BD000018
:1050F000457261736520256420626C6F636B206666
:1051000061696C2121A3ACB4EDCEF3C2EBCEAA252C
:10511000640D0A00FC03002400B589B000F070F8AB
:105120002E482F4908604FF48070486000212C48B9
:105130008160C16001614FF4003141610A218161E8
:10514000C1610A2005900690079008900190029096
:105150000390049001AA05A92148FCF70DFF00F077
:10516000A1FA642001F0B6FF00F08EF81D49086135
:10517000084601691CA0FBF7A7F9042000F068F8B5
:10518000184800691C4988420FD14FF487501549CF
:1051900008804FF480504880E0208880802088710B
:1051A000000108814000488116E00E48006913495B
:1051B00088420ED14FF404600A4908804FF4006021
:1051C00048804020888088714001088140004881E3
:1051D00002E0012009B000BD0020FBE78040005242
:1051E000BC030024FC0300244E414E442049443AB1
:1051F0002523780D0A00000089260048569590DC8A
:105200001FB5FCF781FE01208DF8000003208DF80A
:105210000100C00701901B208DF8080000208DF8C8
:1052200009008DF80A0003208DF80B0000208DF88E
:105230000C008DF80D008DF80E0001208DF80F0088
:105240006846FCF733FE0420FCF774FE1FBD000027
:1052500010B50446EF200A4908700120094908707A
:10526000C00704700020890308700870087000F0FF
:1052700027FA402801D1002010BD0120FCE70000E2
:1052800000000180000002800CB59021144A1170CA
:105290000021144A1170910309788DF800109103D0
:1052A00009788DF80110910309788DF802109103A7
:1052B00009788DF80310910309788DF804109DF892
:1052C000011009069DF8022041EA02419DF80320E1
:1052D00041EA02219DF8042041EA02000CBD0000D1
:1052E00000000180000002802DE9FC5F81460F462E
:1052F00016461D46002001908046824600240090FC
:105300008A4908708A490F703812087081F8009035
:105310004FEA192008704FEA19400870302083497D
:105320000870002000F0E8F98046B8F1000F02D0C4
:105330000220BDE8FC9F012000F0DEF98046B8F1B4
:10534000000F01D00220F4E7E91705EBD151491213
:10535000A5EB412189B10020019009E04FF0004008
:10536000007806F8010BBDF80400401C80B20190E3
:10537000BDF80400A842F1DBCFE02846E91705EBB1
:10538000D151C1F3472A3846F91707EBD151C1F380
:105390004724B3464FF0000835E06648006840F007
:1053A000400064498039C1F880000020019009E084
:1053B0004FF00040007806F8010BBDF80400401CD7
:1053C00080B20190BDF80400B0F5007FF0DB00BFB3
:1053D0005848001D006800F040000028F8D05548EB
:1053E0001430016808EB0402534840F82210514879
:1053F0008038D0F8800020F040004E49086008F165
:10540000010000F0FF08D045C7DB4B481C3840883E
:10541000103000EB840080B201901E20FFF79AFD4F
:10542000052042490870BDF8040041490870BDF8E4
:10543000040000120870E0203C4908701E20FFF7AD
:1054400089FD3D48203000EB84060020019009E0F2
:105450004FF00040007806F8010BBDF80400401C36
:1054600080B201904FEA8A00BDF804108842EFDC58
:10547000002001904DE0BDF8040001192E482030B5
:1054800050F82110BDF8040002192B4850F82200F2
:10549000814239D0BDF8040003192748203050F864
:1054A0002320BDF804000319234850F8231023A03B
:1054B000FBF70AF82246514626A0FBF705F83A46C4
:1054C00049462AA0FBF700F8BDF8043003EB040CB2
:1054D000194B53F82C20BDF8043003EB040C164B89
:1054E000203353F82C10BDF804304FF4007C0CFB33
:1054F00003B0FFF739FD8046B8F1000F02D0042059
:10550000009001E003200090BDF80400401C80B230
:105510000190BDF804005045ADDB00F0D1F8402803
:1055200001D001200090009803E7000000000180F6
:10553000000002808040005218040024657272202E
:1055400068642C72643A307825782C307825780D90
:105550000A0000006563636E756D2C656363737488
:105560006172743A25642C25640D0A0050616765E8
:105570004E756D2C436F6C4E756D3A25642C256409
:105580000D0A00002DE9F04704460D4617469846DF
:10559000DDF820A00026B14600201C4908701C49F7
:1055A0000D70281208700C70200A0870200C08700A
:1055B000302016490870002000F09EF88146B9F1AD
:1055C000000F02D00220BDE8F087012000F094F81F
:1055D0008146B9F1000F01D00220F4E7002607E070
:1055E0004FF000400068B84200D003E0701C86B263
:1055F0004645F5DB00BFAAF8006000F061F84028DE
:1056000001D00120DFE70020DDE70000000001807D
:10561000000002802DE9F04707460C4690461D46E3
:105620004FF0000900260A480079001BC6B2B542B7
:1056300000DD354606484088204481B22B4642466C
:105640003846FFF751FE81464846BDE8F087000026
:10565000FC03002408B50020009070201049087059
:105660009DF80000401CC0B200909DF80000401C56
:10567000C0B200909DF80000401CC0B200909DF8A0
:105680000000401CC0B200909DF80000401CC0B259
:105690000090C803007800909DF8000008BD00004D
:1056A0000000018000B5FF200449087000F008F8F0
:1056B000402801D1002000BD0120FCE7000001804E
:1056C00008B50022002000900FE0FFF7C3FF02465C
:1056D00002F0400000B109E00098401C009005492C
:1056E0000098884201D3022008BDEEE700BF4020A9
:1056F000FAE70000FFFF010001B582B00020019031
:105700000EE0BDF80400401C80B201904021084822
:10571000FCF778FB9DF80810884201D100200EBDEF
:10572000BDF8040042F210718842EADB0120F6E77E
:10573000000C02582DE9F84780460E4615461C46D7
:10574000002000900027824681468020564908703C
:1057500056490E703012087081F800804FEA182008
:1057600008704FEA184008701E20FFF7F3FBE1179E
:1057700004EBD1514912A4EB412189B100200090E2
:1057800009E015F8010B4FF000410870BDF800006A
:10579000401C80B20090BDF80000A042F1DB76E032
:1057A0002046E11704EBD151C1F3472A3046F117E7
:1057B00006EBD151C1F34729002733E03C4800688C
:1057C00040F040003A498039C1F880000020009044
:1057D00009E015F8010B4FF000410870BDF800001A
:1057E000401C80B20090BDF80000B0F5007FF0DBF7
:1057F00000BF2F48001D006800F040000028F8D0CE
:105800002B481430016807EB09022A4840F822109F
:1058100027488038D0F8800020F0400024490860F4
:10582000781CC7B25745C9DB22481C384088103065
:1058300000EB890080B200901E20FFF78BFB8520D3
:1058400019490870BDF8000018490870BDF800003B
:10585000001208701E20FFF77DFB164800EB89053B
:10586000002000900FE0002706E015F8010B4FF034
:1058700000410870781CC7B2042FF6DBBDF80000A9
:10588000401C80B20090BDF800005045EBDB1020BA
:1058900005490870FFF714FF402802D00120BDE839
:1058A000F8870020FBE70000000001800000028074
:1058B00080400052180400242DE9F04104460D46B2
:1058C00016461F464FF00008802012490870124902
:1058D0000D70281208700C70200A0870200C0870D7
:1058E0001E20FFF737FB00BF06E04FF000400660C8
:1058F00008F101001FFA80F8B845F6DB10200549D1
:105900000870FFF7DDFE402802D00120BDE8F081DD
:105910000020FBE700000180000002802DE9F04339
:1059200007460C4690461D464FF0000900260A48DF
:105930000079001BC6B2B54200DD354606484088F6
:10594000204481B22B4642463846FFF7F3FE81469B
:105950004846BDE8F0830000FC0300247047704710
:105960002DE9F04104460E4600274848006800F043
:105970000300032802D10120BDE8F0814348283804
:10598000006820F08060414928390860FCF748FA37
:10599000054606E0FCF744FA401B022801D9032023
:1059A000EAE73A4828380068C0F3C0600028F1D11F
:1059B00000BF3648006820F47C30216840EA01309E
:1059C00032490860A088401EC0F30800A168491E43
:1059D0004FF47E4202EA41210843A189491ED201C7
:1059E00002EA01410843217C491E120202EA0161D8
:1059F000084326491031086000BF2448001D006894
:105A000020F0C000616908432049091D086008466C
:105A1000006820F02000A16908431C49091D0860A6
:105A20002EB90846006840F40020086012E0012EFC
:105A300008D11648001D006840F480101349091D64
:105A4000086007E01148001D006840F400100F498D
:105A5000091D08600D482838006840F080600B4937
:105A600028390860FCF7DCF9054606E0FCF7D8F9B0
:105A7000401B022801D903207EE70448283800682B
:105A8000C0F3C0600028F1D0384675E728440258BA
:105A90002DE9F04104460E4600274848006800F012
:105AA0000300032802D10120BDE8F08143482838D3
:105AB000006820F08050414928390860FCF7B0F9AF
:105AC000054606E0FCF7ACF9401B022801D903208B
:105AD000EAE73A4828380068C0F340700028F1D15E
