:020000040800F2
:10000000607D07249903000871940008F7510008E7
:10001000A5030008A50C000875AE0008000000004C
:100020000000000000000000000000004F9E0008DB
:10003000C50C00080000000073940008499F0008E8
:10004000B3030008B3030008B3030008B3030008B8
:10005000B3030008B3030008B3030008B3030008A8
:10006000B3030008B3030008B3030008B303000898
:10007000B3030008B3030008B3030008B303000888
:10008000B3030008B3030008B3030008B303000878
:10009000B3030008B3030008B3030008B303000868
:1000A000B3030008B3030008B3030008B303000858
:1000B000B3030008B3030008E59F0008B30300087A
:1000C000B3030008B3030008B3030008B303000838
:1000D000B303000825AE0008B3030008B30300080B
:1000E000B3030008B303000800000000B3030008D6
:1000F000B3030008B3030008B3030008B303000808
:10010000B3030008B3030008B3030008B3030008F7
:10011000B3030008B3030008B3030008B3030008E7
:10012000B3030008B3030008B3030008B3030008D7
:10013000B3030008B3030008B3030008B3030008C7
:1001400000000000000000000000000000000000AF
:10015000B3030008B3030008B3030008B3030008A7
:10016000B3030008B3030008B3030008B303000897
:10017000B3030008B3030008B30300080000000045
:10018000B3030008B3030008B3030008B303000877
:10019000B3030008B3030008B3030008B303000867
:1001A000B3030008B3030008B3030008B303000857
:1001B000B3030008B3030008B3030008B303000847
:1001C000B3030008B3030008B3030008B303000837
:1001D000B3030008B3030008B3030008B303000827
:1001E000B3030008B3030008B3030008B303000817
:1001F000B3030008B3030008B3030008B303000807
:10020000B3030008B3030008B3030008B3030008F6
:10021000B3030008B3030008B3030008B3030008E6
:10022000B3030008B3030008B30300080000000094
:10023000B3030008B303000800000000B303000884
:10024000B3030008B3030008B3030008B3030008B6
:10025000B3030008B3030008B3030008B3030008A6
:10026000B3030008B3030008B3030008B303000896
:10027000B3030008B3030008B30300080000000044
:10028000B303000800000000B303000800000000F2
:1002900000000000B303000800F002F800F06DF861
:1002A0000AA090E8000C82448344AAF10107DA45D1
:1002B00001D100F062F8AFF2090EBAE80F0013F0B6
:1002C000010F18BFFB1A43F00103184774CB00005D
:1002D00094CB00000A444FF0000C10F8013B13F0DF
:1002E000070408BF10F8014B1D1108BF10F8015B8F
:1002F000641E05D010F8016B641E01F8016BF9D182
:1003000013F0080F1EBF10F8014BAD1C0C1B09D1D8
:100310006D1E58BF01F801CBFAD505E014F8016B4A
:1003200001F8016B6D1EF9D59142D6D370470000DC
:100330000023002400250026103A28BF78C1FBD8EE
:10034000520728BF30C148BF0B607047642900F0D6
:100350001781752900F01481782900F04D816329F7
:1003600000F01B83732900F02083002070471FB525
:100370000CF0EAFA1FBD10B510BD00F049FB1146A4
:10038000FFF7F5FF0AF048FF00F067FB03B4FFF743
:10039000F2FF03BC0AF0AFFE094880470948004756
:1003A000FEE7FEE7FEE7FEE7FEE7FEE7FEE7FEE725
:1003B000FEE7FEE704480549054A064B7047000082
:1003C000519F00089902000860770724607D072488
:1003D000607907246079072453EA020C00F06980F1
:1003E0002DE9F04B4FF00006002B1FBFB3FA83F549
:1003F00003FA05F424FA05F65E4012BF1643B2FA7A
:1004000082F502FA05F4C5F120051EBF22FA05FCAB
:1004100044EA0C04203556EA044C4FEA144418BF51
:10042000641C4FF000084FF00009904271EB030C80
:1004300039D3002919BFB1FA81F701FA07F6B0FAEA
:1004400080F700FA07F6C7F120071EBF20FA07FC65
:1004500046EA0C062037B6FBF4FCA7EB0507103F75
:1004600007F01F0BCBF120060CFA0BFB2CFA06F65B
:1004700044BFB3460026202FA4BF5E464FF0000BBA
:100480005BEA060C08BF4FF0010B19EB0B09ABFB45
:10049000027C48EB0608C01B06FB02CC0BFB03CC1E
:1004A00071EB0C01C1E70B46024641464846BDE8E8
:1004B000F08B13B54FF000004FF00001AFF3008058
:1004C000BDE81C40704700000FB4044910B503AAF2
:1004D000029800F06FFA10BC5DF814FB14000024C1
:1004E00070B5044685690068C10601D5302600E074
:1004F0002026C00707D070BDD4E9012130469047BF
:10050000206A401C20626D1EF6D570BD70B5044691
:1005100085690078C00707D170BDD4E9012120208A
:100520009047206A401C20626D1EF6D570BD70B5E4
:100530000C460546012A05D02878800600D5EA69D0
:10054000002302E0012305E05B1C934202D2E05C41
:100550000028F9D1A869E618C01AA861286A1844C9
:1005600028622846FFF7BCFF04E0D5E9012114F812
:10057000010B9047B442F8D32846FFF7C7FF70BD80
:100580002DE9F0410646002410687529314616A56C
:1005900010D0AFF30080002802DA404213A507E034
:1005A00031688A0701D512A502E0490704D511A5D3
:1005B000012401E0AFF3008000210A2206F12407A4
:1005C00009E0B0FBF2FCB0FBF2F302FB1C003030A0
:1005D00078541846491C0028F3D123462A46304651
:1005E000BDE8F04100F076B9000000002D000000E9
:1005F0002B0000002000000070B504460D46214687
:100600001068AFF300802188090502D50F4A7A44AB
:1006100002E00E4A7A440E32002104F1240305E080
:1006200000F00F060009965D5E54491C0028F7D1C2
:1006300020780023000704D5702D02D009B10223D1
:1006400011322046BDE8704000F044B92AC40000D1
:100650002DE9F05F894604464FF0000ADFF874B1D7
:10066000FB44C0F820A02046E1688847002874D0E9
:10067000252806D0D4E901219047206A401C206239
:10068000F1E700265F462046E168884720280546B6
:1006900007DB312D05D2781910F8200C08B106437C
:1006A000F1E7B00701D526F00406C4F81CA0002726
:1006B000C4F818A02A2D09D028460AF015FD38B331
:1006C00004EB8708303DC8F8185019E059F8041BAE
:1006D000204604EB87029161E1688847012F0546B7
:1006E00018D1E069002820DA26F020061DE0D8F8AD
:1006F000180000EB800005EB40003038C8F8180007
:100700002046E168884705460AF0EEFC0028EED155
:10071000012F0AD02E2D08D12046E16888477F1C82
:100720000546022F46F02006C4DBA069002803DA44
:10073000404246F00106A061F00701D026F0100605
:100740006C2D0BD0682D09D04C2D39D06A2D35D0A9
:10075000742D35D07A2D33D016E038E0E1682F467D
:1007600020468847B842054609D16C2F26D04FF461
:100770008060E168064320468847054604E06C2F08
:100780001AD04FF4807006430DB3A5F1410019282B
:1007900002D8203546F400664A462946204626609F
:1007A0004E46FFF7D3FD80B101280BD0F61D26F091
:1007B000070000F1080956E74020E4E78020D8E769
:1007C0000020D6E706F104094DE7284652E7206AE3
:1007D000BDE8F09F00C4000010B5203AC0F00B80C7
:1007E000B1E81850203AA0E81850B1E81850A0E835
:1007F0001850BFF4F5AF5FEA027C24BFB1E818508F
:10080000A0E8185044BF18C918C0BDE810405FEAFE
:10081000827C24BF51F8043B40F8043B08BF70477A
:10082000D20728BF31F8023B48BF11F8012B28BF7F
:1008300020F8023B48BF00F8012B70474FF0000240
:100840000429C0F0128010F0030C00F01B80CCF1E2
:10085000040CBCF1020F18BF00F8012BA8BF20F850
:10086000022BA1EB0C0100F00DB85FEAC17C24BFA4
:1008700000F8012B00F8012B48BF00F8012B70474E
:100880004FF0000200B5134694469646203922BF29
:10089000A0E80C50A0E80C50B1F12001BFF4F7AF74
:1008A000090728BFA0E80C5048BF0CC05DF804EB56
:1008B000890028BF40F8042B08BF704748BF20F8C4
:1008C000022B11F0804F18BF00F8012B70477047C2
:1008D000704770472DE9F0470D4699469246044609
:1008E00000F124080168880604D5E06921F01001B0
:1008F000216000E00120A84201DD471B00E0002745
:10090000A1697A1902EB0900081AA0612078C006D3
:1009100002D42046FFF7E4FD002608E0D4E90121D7
:100920001AF806009047206A401C761C20624E454B
:10093000F4DB2078C0060AD52046FFF7D1FD06E09B
:10094000D4E9012130209047206A401C2062381EE3
:10095000A7F10107F4DC07E0D4E9012118F805004C
:100960009047206A401C2062281EA5F10105F3DC97
:100970002046FFF7CBFD2078000602D50220BDE817
:10098000F0870120FBE710B5436913B1AFF3008096
:1009900001E0FFF7CCFD012010BD127800F1240129
:1009A0000A7000224A700122EDE711684FF0FF3211
:1009B000E9E70000074B70B50D467B4400F011F8E5
:1009C0000446284600F020F810B14FF0FF3070BD0B
:1009D000204670BD3FA8000001694A1C02610878EA
:1009E000704700B58FB0CDE901310021059105496F
:1009F0007944CDE9031011466846FFF729FE0FB090
:100A000000BD0000E5FFFFFF007B00F080007047A5
:100A1000754600F02BF8AE4605006946534620F0B7
:100A20000700854618B020B5FFF7C4FCBDE820409C
:100A30004FF000064FF000074FF000084FF0000B9A
:100A400021F00701AC46ACE8C009ACE8C009ACE84D
:100A5000C009ACE8C0098D46704710B50446AFF335
:100A600000802046BDE81040FFF790BC004870476A
:100A70000077072400B587B000BF2148006840F028
:100A800002001F4908600846006800F0020001905B
:100A900000BF00BF00BF0846006840F004000860C7
:100AA0000846006800F00400019000BF00BF4FF44A
:100AB000805002900120039004900320059002A929
:100AC000104800F099FF4FF48040029001200390FD
:100AD00004900320059002A90B4800F08DFF09F057
:100AE000C7F800F0C5F801221103064801F0B2F87A
:100AF00000224FF48041044801F0ACF807B000BD7B
:100B0000E0440258000402580010025810B50021B9
:100B100008460AF015FB082100200AF011FB00210D
:100B200020200AF00DFB012121200AF009FB41F2EF
:100B3000144122200AF004FB002123200AF000FBCC
:100B40004A491E200AF0FCFA41F63F711D200AF0C6
:100B5000F7FA41F2707101200AF0F2FA41F63E71A3
:100B600002200AF0EDFA41F2707103200AF0E8FA6F
:100B700041F63F7104200AF0E3FA002105200AF053
:100B8000DFFA40F2CE7106200AF0DAFA02210D20D7
:100B90000AF0D6FA40F2CF710E200AF0D1FA40F2F4
:100BA000D2710F200AF0CCFA40F69F7110200AF0A3
:100BB000C7FA4FF4FA6107200AF0C2FA40F69E71B4
:100BC00008200AF0BDFA4FF4FA6109200AF0B8FAD9
:100BD00040F69F710A200AF0B3FA4FF47A610B20B5
:100BE0000AF0AEFA41F26E710C200AF0A9FA40F652
:100BF000A27111200AF0A4FA41F26F7112200AF0DA
:100C00009FFA41F2727113200AF09AFA41F63F718D
:100C100014200AF095FA002115200AF091FA00211B
:100C200016200AF08DFA4FF4FA6117200AF088FABC
:100C30004FF4FA6118200AF083FA4FF47A61192010
:100C40000AF07EFA4FF47A611A200AF079FA41F23A
:100C500070711B200AF074FA41F270711C200AF0C6
:100C60006FFA64200AF09AFA10BD0000070701002D
:100C700010B50B480068006820F0010008490968B9
:100C80000860002106480161416103F057FC0448F7
:100C90000068006840F0010001490968086010BD63
:100CA0002806002400BFFEE710B508F021FF08F079
:100CB000D1FE0348006840F004000149086010BDFF
:100CC0009CEF00E0704730B5034614460022DA6816
:100CD0000022D1E9000540EA05200D8940EA0540DF
:100CE0000D7B40EA05600243DA60002030BD30B57C
:100CF0000346144600229A680022D1E9000540EA22
:100D000005200D8940EA05400D7B40EA056002435D
:100D10009A60002030BD000010B502460023136821
:100D200009480340D1E901042043CC6820430C6901
:100D300020434C6940EA44208C6940EA4430034334
:100D40001360002010BD00008901F0FF70B504465B
:100D50001D460023B5F5804F13D154F822300C48BE
:100D60000340D1E9000640EA06108E6840EA0620FA
:100D70008E8940EA06408E693043034344F82230AE
:100D800003E06FF0704044F82200002070BD0000C6
:100D90000000F0CF10B502460023086852F820305A
:100DA0001B480340D1E901042043CC6820430C696F
:100DB00020434C6920438C692043CC6920430C6A52
:100DC00020434C6A20438C6A2043CC6A20430C6B3E
:100DD00020438C6B20434C6B2043034388680828D6
:100DE00001D143F04003086842F82030086BB0F5A9
:100DF000801F05D1086818B110680C6B2043106083
:100E0000086818B110684C6B20431060002010BDBA
:100E10008004C0FF30B5034614460022601C53F81E
:100E2000202002F04042D1E9000540EA05108D681B
:100E300040EA05208D8940EA0545088A401E45EABA
:100E40000055087D801E45EA00608D6928430243F5
:100E5000601C43F82020186800F4801038B15868EE
:100E600020F47002088A401E42EA00525A600020B4
:100E700030BD30B50246002300240868012816D092
:100E800013686FF30E03D1E901052843CD682843A9
:100E90000D6928434D6928438D692843CD6928434E
:100EA0000D6A28434D6A28430343136019E0136811
:100EB00023F4F843D1E9070528434D6A2843034347
:100EC00054686FF30E04D1E901052843CD68284327
:100ED0000D6928434D6928438D69284304431360F5
:100EE0005460002030BD0246506940EA4100506124
:100EF0000020704718B5034600200090D1E9000497
:100F000020438C68641E40EA4410CC6840EA4420C8
:100F1000009000981861002018BD000070B50346CD
:100F2000154600220024012D1FD09A6802F070425D
:100F30000868401E4E68761E40EA06168868401E05
:100F400046EA0026C868401E46EA0036088A401E67
:100F500046EA0046888A401E46EA0056087E401E41
:100F600046EA006002439A6022E09A681148024013
:100F7000C868401E0603888A401E46EA00500243A5
:100F8000DC6804F070440868401E4E68761E40EA33
:100F900006168868401E46EA0026088A401E46EA71
:100FA0000046087E401E46EA006004439A60DC600A
:100FB000002070BDFF0F0FFF38B504464FF0AA3078
:100FC00000900949897901FB04F004236A46002155
:100FD00008F02EFA044989796143481C04236A46C3
:100FE000002108F025FA38BD800500242DE9FC47D2
:100FF00004460D4600275DE04FF0000820E001A800
:1010000030490090B1F802904FEAE97109EB917113
:101010008B102C49897901FB04F02A46002108F045
:101020003BF828494888C11700EB9171BDF80420AE
:10103000B2EBA10F00D007E008F101001FFA80F821
:10104000204880794045DADC00BF1E488079404561
:1010500002D10020BDE8FC87204607F08FFD064640
:1010600026B1394618A0FFF72FFA21E0681CF8B125
:101070000020019016E01349B1F802904FEAE9719F
:1010800009EB91718B100F498979BDF8042004FB9D
:1010900001200022114608F099F9BDF80400401C17
:1010A00080B2019007488079BDF804108842E2DCE4
:1010B000781C87B2032F9FDB214609A0FFF704FAB3
:1010C0000120C7E7800500246572726F7220657287
:1010D00061736520626C6F636B3A25640D0A0000D2
:1010E00062616420626C6F636B20636865636B652B
:1010F000643A25640D0A000038B5044600200090CB
:101100000F49897901FB04F001236A46002108F0A8
:101110000BF89DF80000FF2810D109498979614337
:10112000481C01236A46002107F0FEFF9DF80000DD
:10113000FF2801D1002038BD0120FCE70220FAE79A
:10114000800500242DE9FE4F81460F4692461D463C
:101150000024002002908046019000263B488079C0
:10116000B9FBF0F839488079B9FBF0F100FB119038
:10117000019000BF404600F0E1F806463348408940
:10118000B04202D20120BDE8FE8F00243AE001986F
:10119000844221D305B32D484088C01BA84205D204
:1011A0002A484088C01B1FFA80FB01E01FFA85FB1C
:1011B000264ACDF800B0927906FB0241234A927983
:1011C00008FB024053463A4607F0EAFA029000272D
:1011D000DA44A5EB0B050AE01C4A927906FB0241B2
:1011E0001A4A927908FB024007F0DEFB029002984F
:1011F00030B13046FFF7E0FE012000F029F8B9E7F2
:10120000601C84B211488079A042C0DC0F4880790C
:10121000A04219D1304600F099FA404607F0AEFCE2
:1012200000240CE00948406930F81400404504D11E
:101230000649496921F8146005E0601C84B203483E
:101240004089A042EEDC00BF00209CE7800500241E
:10125000F8B505460026002406E04FF6FF70304939
:10126000496921F81400641C2D484089A042F4D833
:1012700000202B498881002433E02949897901FB2A
:1012800004F004236A46002107F04EFF9DF8000099
:10129000FF2809D145B1224989796143481C0123BE
:1012A0006A46002107F040FF9DF80000FF2813D197
:1012B0009DF802009DF8031000EB012618484089B4
:1012C000B04203D91649496921F81640144880896B
:1012D000401C1349888103E0214612A0FFF7F4F86F
:1012E000641C0F484089A042C7D800240BE00C487A
:1012F000406930F814000A494989884202DB0849EC
:10130000CC8104E0641C06484089A042EFD800BFAD
:101310000348C089642801DA0220F8BD0020FCE7F8
:101320008005002462616420626C6F636B20696ECB
:101330006465783A25640D0A0000000070B5054622
:10134000002418484089401E17490968884204D281
:1013500014484089401E1449086005F001011248F4
:10136000006800F023F80446601C90B90D484089DD
:10137000401E0D49096888420BD90A484089401E21
:101380000949086005F001010748006800F00EF8FF
:101390000446601C10B94FF0FF3070BD0248046075
:1013A0002046FAE78005002430000024F8B5054601
:1013B0000E460020009000246C1C14E0601E00F01B
:1013C0000100B0420ED1611E094A927901FB02F080
:1013D00004236A46002107F0A7FE0098401C08B9C4
:1013E000601EF8BD641E002CE8D1601EF9E7000005
:1013F00080050024F8B5002600202D4988810024AE
:1014000017E02046FFF778FE05468DB9204607F025
:10141000B5FB05463DB1214626A0FFF755F820460D
:10142000FFF7CAFD04E022488089401C20498881DA
:10143000641C1F484089A042E3D81D48818921A02F
:10144000FFF742F81A488089642801DA0120F8BDC4
:1014500017488089C0EB401000EB4000642190FBEE
:10146000F1F600200090002415E02046FFF744FE2E
:1014700005467DB90E49897901FB04F002236A46CD
:10148000194607F0D5FF0098401C00900098B04224
:1014900000D104E0641C06484089A042E5D800BFA2
:1014A0000120FFF7D5FE08B10220D0E70020CEE7EB
:1014B0008005002442616420626C6F636B3A25648E
:1014C0000D0A0000676F6F645F626C6F636B6E750F
:1014D0006D3A25640D0A000010B507F0A7FB08B1AE
:1014E000012010BD1F48406920B11E4841690020FD
:1014F00009F0BCFF1B4840894100002009F0C8FFEB
:10150000184948610A4652895100164A5069FFF746
:1015100095F91448406908B90120E2E70120FFF776
:1015200097FE044664B110A0FEF7CEFFFFF762FFFE
:101530000446002C13D012A0FEF7C6FF0220D0E70D
:101540000848418913A0FEF7BFFF0648818917A00C
:10155000FEF7BAFF0348C18919A0FEF7B5FF0020C6
:10156000BFE7000080050024666F726D6174206E15
:10157000616E6420666C6173682E2E2E0D0A000069
:10158000666F726D6174206661696C6564210D0A15
:1015900000000000746F74616C20626C6F636B20DC
:1015A0006E756D3A25640D0A00000000676F6F6468
:1015B00020626C6F636B206E756D3A25640D0A00B6
:1015C00076616C696420626C6F636B206E756D3A36
:1015D00025640D0A00000000014600220648C0896B
:1015E000884202D24FF6FF7070470348406930F8D6
:1015F00011201046F8E70000800500242DE9FF4F78
:1016000083B014469A460026002500BF97E04E4856
:10161000408890FBF4F04C49897948430499294467
:10162000B1FBF0F002900298FFF7D6FF83464648E0
:101630004189594503D8012007B0BDE8F08F4248E1
:10164000408890FBF4F04049897948430499294443
:10165000B1FBF0F200FB1210604301903A48418860
:101660000198B0FBF1F0384989790BFB0108364845
:1016700041880198B0FBF1F201FB12093248408821
:10168000A0EB0900B0FBF4F087B2AAEB0500B8426A
:1016900002D2AAEB050087B207FB04F083B21FFA5F
:1016A00089F14046039A07F0A9FB0646032E39D17B
:1016B00007FB04F083B21FFA89F14046039A07F052
:1016C0009DFB0646032E2DD107FB04F31FFA89F17B
:1016D0004046039AFFF736FD1B488079B8FBF0F0CF
:1016E000311F0090FFF782FC06467EB916488079CC
:1016F000B8FBF0F000210090FFF778FC0646124896
:101700008079B8FBF0F0009007F038FA4EB10E483F
:101710008079B8FBF0F00090FFF74EFC0120FFF756
:1017200097FD0026042E00D100260EB1022083E78B
:10173000039804FB07000390781E05446D1C554573
:10174000FFF465AF002077E78005002438B5044634
:10175000CC20009000250649897901FB04F0012383
:101760006A46194607F064FE0546284638BD000063
:10177000800500242DE9FF4F87B014469A464FF0AC
:10178000000B0025681E029000BFA7E05648408865
:1017900090FBF4F054498979484308992944B1FBF6
:1017A000F0F005900598FFF717FF06464E4841896F
:1017B000B14203D801200BB0BDE8F08F4A48408801
:1017C00090FBF4F048498979484308992944B1FBD2
:1017D000F0F200FB121060430390434841880398E5
:1017E000B0FBF1F04049897906FB010004903E48C6
:1017F00041880398B0FBF1F201FB12093A48408896
:10180000A0EB090080B20690BDF8180090FBF4F040
:1018100080B20690AAEB050087B2BDF81800874297
:1018200001DBBDF8187007FB04F806A81FFA89F160
:10183000C8F38F034FF0FF320090049807F02CFCA0
:101840008346BBF1000F01D00220B4E7BDF81800B9
:10185000B0EB980F09D11FFA88F31FFA89F1079AA4
:10186000049807F0F1FC834601E04FF0010BBBF157
:10187000000F07D10298B04204D03046FFF766FF50
:1018800083460296BBF1000F22D017488079164993
:10189000498848430399401AB0FBF4F080B206909F
:1018A000AAEB050087B2BDF81800874201DBBDF83E
:1018B000187007FB04F81FFA89F14346079A049849
:1018C000FFF740FC8346BBF1000F01D0032072E715
:1018D000781E05440798404407906D1C5545FFF459
:1018E00055AF002067E700008005002410B50446CE
:1018F0000CB9012010BD94F83500022803D08020D7
:1019000060650120F6E734492068884205D33349F1
:101910002068884201D8012000E00020C0B10420E6
:1019200084F835002C49206888420AD32B49206866
:10193000884206D82068006820F00100216808600D
:1019400048E02068006820F001002168086041E05C
:101950002068006820F00E00216808601E49206899
:1019600088420AD31D492068884206D8206800684A
:1019700020F001002168086005E02068006820F080
:10198000010021680860206E006820F48070216EDC
:10199000086094F85C100120884011490860D4E97F
:1019A00019104860E06E40B1E06E006820F480706D
:1019B000E16E0860D4E91C10486000BF002084F884
:1019C000340000BF012084F83500206D10B120469E
:1019D000216D884700208DE710000240B8040240C6
:1019E000045402580348006840F0010001490860AF
:1019F0007047000020040058F8B502460B4600214D
:101A0000002600240020824D00BFFCE0012707FAD9
:101A100001F61F6807EA0604B4427CD15F68022F12
:101A200002D05F68122F1AD14FEAD10C02F12007C1
:101A300057F82C004F074FEAD76C0F2707FA0CF71F
:101A4000B8434FEA417C4FEADC6C1F6907FA0CF798
:101A500038434FEAD10C02F1200747F82C001068F8
:101A60004FEA410C032707FA0CF7B8431F7907F038
:101A700003074FEA410C07FA0CF7384310605F6820
:101A8000012F08D05F68022F05D05F68112F02D0A8
:101A90005F68122F17D190684FEA410C032707FAAD
:101AA0000CF7B8434FEA410CDF6807FA0CF73843EC
:101AB0009060506801278F40B8431F79C7F3001723
:101AC0008F4038435060D0684FEA410C032707FA33
:101AD0000CF7B8434FEA410C9F6807FA0CF73843FC
:101AE000D0605F6807F08057B7F1805F95D100BF85
:101AF000484F3F6847F00207DFF818C1CCF8007084
:101B000067463F6807F00207009700BF00BF424FDB
:101B10004FEA910C00E075E057F82C008F074FEA70
:101B2000177C0F2707FA0CF7B8433C4FBA4201D194
:101B300000272DE03A4FBA4201D1012728E0394F62
:101B4000BA4201D1022723E0374FBA4201D103271D
:101B50001EE0364FBA4201D1042719E0344FBA4291
:101B600001D1052714E0334FBA4201D106270FE017
:101B7000314FBA4201D107270AE0304FBA4201D1B2
:101B8000082705E02E4FBA4201D1092700E00A27B5
:101B90004FEA817C4FEA1C7C07FA0CF738431E4F52
:101BA0004FEA910C47F82C002868A0435F6807F4BF
:101BB0008037B7F5803F00D1204328606868A04394
:101BC0005F6807F40037B7F5003F00D12043686035
:101BD0004FF0B0473868A0435F6807F48017B7F547
:101BE000801F00D120434FF0B04738607868A04391
:101BF0005F6807F40017B7F5001F00D120434FF0CE
:101C0000B0477860491C1029FFF400AFF8BD000010
:101C100080000058F444025808040058000002589C
:101C20000004025800080258000C02580010025824
:101C30000014025800180258001C025800200258D4
:101C400000240258024613690B400BB1012000E04A
:101C5000002070470AB1018300E041837047000013
:101C600001480068704700001C0000240348006819
:101C70000349097808440149086070471C000024A2
:101C80002400002410B5032000F052FB0F2000F0C8
:101C900007F808B1012010BD00F058FA0020FAE75B
:101CA00070B504460E4800784FF47A71B1FBF0F03D
:101CB0000C490968B1FBF0F5284603F031F808B18A
:101CC000012070BD102C07D200222146501E00F0CA
:101CD000F1FA0548046001E00120F2E70020F0E796
:101CE00024000024080000242000002470B50446CD
:101CF0000E46154600BF94F8A000012801D102202D
:101D000070BD012084F8A00000BF022084F8A1006B
:101D100005EB850101EBC50204F1380101EB8200FE
:101D200034223146FEF758FD2A463146204606F059
:101D3000E7FB01202168486284F8A10000BF002071
:101D400084F8A00000BF00BFDAE7000070B50446C9
:101D5000002500260CB9012070BD94F8A10028B917
:101D6000002084F8A000204600F07EF8022084F8CD
:101D7000A1002068806920F0704021688861D4E962
:101D800001010843E1680843216908432168896922
:101D900008432168886120688068324908402168CA
:101DA0008860A08A050420688068A16929430843E7
:101DB000216888602068C0682A4908402168C86096
:101DC000A08B05042068C068216A29430843216864
:101DD000C860206800692349084021680861A08C18
:101DE000050420680069A16A294308432168086145
:101DF000206840691B49084021684861A08D05049E
:101E000020684069216B294308432168486194F8A0
:101E10003500050294F8360006042068C06A00F018
:101E20007F402168C86246EA050094F834100843F0
:101E30002168C96A08432168C8622068406B40F085
:101E40000600216848632068806940F0010021682D
:101E500088610020C4F8A400012084F8A1000020BB
:101E60007AE7000000F800F010B586B0044600BF25
:101E70004848006840F00800464908600846006885
:101E800000F00800009000BF00BF00BF41481038BC
:101E9000006840F010003F491039086008460068AB
:101EA00000F01000009000BF00BF00BF3948001FC5
:101EB000006840F002003749091F086008460068C2
:101EC00000F00200009000BF00BF00BF084600689D
:101ED00040F0200008600846006800F020000090F4
:101EE00000BF00BF00BF0846006840F04000086027
:101EF0000846006800F04000009000BF00BF00BF2F
:101F00000846006840F0800008600846006800F05D
:101F10008000009000BF00BF00BF0846006840F48A
:101F2000807008600846006800F48070009000BF70
:101F300000BF202001900120029003900320049014
:101F400001A91548FFF758FD4FF480600190022069
:101F5000029000200390032004900E20059001A918
:101F60000E48FFF749FD4FF40C60019001A90C48A1
:101F7000FFF742FD4FF47E40019001A90948FFF7A9
:101F80003BFD40F2F760019001A90748FFF734FDDF
:101F900006B010BDE4440258000402580014025870
:101FA00000180258001C0258002002582DE9F04188
:101FB00004460E461746984600BF94F8A000012834
:101FC00002D10220BDE8F081012084F8A00000BF0A
:101FD000022084F8A10008EB880000EBC80104F19E
:101FE000380000EB81052E60A86A30446860AF605D
:101FF000E86A3844E86042462946204606F080FAFE
:1020000001202168486284F8A10000BF002084F804
:10201000A00000BF00BFD5E72DE9F04104460E4601
:102020001746984600BF94F8A000012802D102206C
:10203000BDE8F081012084F8A00000BF022084F8F0
:10204000A10008EB880000EBC80104F1380000EBA8
:102050008105286830446860A8683844E860AE624A
:10206000EF6242462946204606F04AFA01202168DE
:10207000486284F8A10000BF002084F8A00000BFDF
:1020800000BFD5E74178154A11600178F9B1121DFA
:1020900041681160017B0907C27A41EA0261827AD4
:1020A00041EAC241427B41EA8241827B41EA4241AC
:1020B000C27B41EA0241427A41EA0221027A41EAC4
:1020C000420102781143054A0832116005E00021FF
:1020D000024A121D1160121D1160704798ED00E058
:1020E00000BF00BF00BFBFF35F8F00BF00BF00BFD6
:1020F0000548006820F48030034908600020024948
:10210000703108607047000024ED00E040F00101EC
:102110000D4A11600C497039096841F480310A4A4E
:10212000703A116000BF00BF00BFBFF34F8F00BF08
:1021300000BF00BF00BF00BF00BFBFF36F8F00BF75
:1021400000BF00BF7047000094ED00E07047000042
:1021500070B504460E4615460CB9012070BD94F8C2
:10216000210028B9002084F82000204600F022F841
:10217000211D2068FEF7D0FD3146D4E90002FEF7AC
:10218000B6FD2946D4E90002FEF79DFD20680068EF
:1021900040F00400216808600548006840F00040F5
:1021A00003490860012084F821000020D6E70000E0
:1021B0000040005210B586B0044600BF31480068A8
:1021C00040F480502F4908600846006800F48050B1
:1021D000009000BF00BF00BF2A480C30006840F0EC
:1021E000080028490C3108600846006800F0080023
:1021F000009000BF00BF00BF0846006840F010001C
:1022000008600846006800F01000009000BF00BFA2
:1022100000BF0846006840F04000086008460068BB
:1022200000F04000009000BF00BF4020019000205F
:102230000290012003900320049001A91248FFF7A7
:10224000DBFB4FF40070019002200290002003900D
:10225000032004900C20059001A90C48FFF7CCFB4B
:102260004DF6330001900020039001A90648FFF7C6
:10227000C3FB4FF4F060019001A90548FFF7BCFBD8
:1022800006B010BDD4440258000C02580018025881
:102290000010025801460846002809DB00F01F0321
:1022A00001229A4043099B0003F1E023C3F8002177
:1022B00000BF70472DE9F05F80460D46164608F0D6
:1022C000F7FE074639462A46334601F00700C0F1BB
:1022D000070ABAF1040F02D94FF0040A01E0C0F175
:1022E000070AD14600F1040ABAF1070F02D24FF0F3
:1022F000000A01E0A0F1030AD4464FF0010A0AFAED
:1023000009FAAAF1010A0AEA020A0AFA0CFA4FF0DB
:10231000010B0BFA0CFBABF1010B0BEA030B4AEAC6
:102320000B042146404608F0CBFEBDE8F09F0000BC
:1023300000BF00F00702064B19684FF6FF03194073
:10234000044B0B4343EA0221014B196000BF704765
:102350000CED00E00000FA052DE9F84304460D46B7
:1023600016460127FFF77CFC8046A86900B100BF34
:10237000E86900B100BF286A00B100BF00BF94F84F
:102380004000012802D10220BDE8F883012084F832
:10239000400000BF94F84100012828D1002060646B
:1023A000022084F841004346002220212046009666
:1023B00007F0FAF90746DFB900222946204607F060
:1023C00059F8686A78B943460122022120460096EE
:1023D00007F0EAF907465FB902202168C8600120CA
:1023E00084F8410004E0012084F8410000E0022765
:1023F00000BF002084F8400000BF3846C4E700005A
:10240000F8B504460125FFF72BFC06460CB9012060
:10241000F8BD206A402800D000BF00BF94F84000FB
:10242000012801D10220F3E7012084F8400000BF19
:1024300094F8410050B9002084F84000204600F094
:102440005DF841F28831204600F027F920680068E5
:1024500020F47061A068401E4FF4706292FAA2F2FC
:10246000B2FA82F29040014320680160A06C3346CA
:10247000002220210090204607F096F9054695BBE2
:102480004FF07F4191FAA1F1B1FA81F16068884083
:10249000E1680843E1690843216A08432168096843
:1024A000144A11400843216808604FF4F81191FA6A
:1024B000A1F1B1FA81F12069884061690843A169FD
:1024C0000843216849680C4A114008432168486064
:1024D0002068006840F00100216808600020606406
:1024E000012084F8410000BF002084F8400000BFB4
:1024F00028468DE72FFFFF00FEF8E0FF10B586B0FD
:10250000044600BF2948006840F48040274908601D
:102510000846006800F48040009000BF00BF00BF84
:1025200022480C30006840F0020020490C3108605D
:102530000846006800F00200009000BF00BF00BF26
:102540000846006840F0200008600846006800F077
:102550002000009000BF00BF4020019002200290A8
:1025600001200390032004900A20059001A910483F
:10257000FFF742FA4FF440700190002003900320CF
:10258000049001A90B48FFF737FA042001900920B5
:10259000059001A90648FFF72FFAC020019001A974
:1025A0000448FFF729FA06B010BD0000D4440258D1
:1025B00000040258001402582DE9F84F04460E4654
:1025C00017460025FFF74CFB80462068D0F818908E
:1025D000206800F1200A00BF94F84000012802D1D1
:1025E0000220BDE8F88F012084F8400000BF94F875
:1025F0004100012849D100206064002E3FD02220F4
:1026000084F8410020680069401CA06320680069CC
:10261000401C606326632068406920F0406040F001
:102620008060216848612068C0F8189012E0434635
:10263000012206212046009707F0B6F8054605B1AD
:102640000BE09AF80010226B501C20631170A06BF5
:10265000401EA063A06B0028E9D100BF5DB94346CE
:10266000012202212046009707F09EF8054615B981
:1026700002202168C860012084F8410006E0606CF7
:1026800040F008006064012500E0022500BF002042
:1026900084F8400000BF2846A3E7816470472DE915
:1026A000F84304460E4617460025FFF7D9FA804640
:1026B000206800F1200900BF94F84000012802D1F1
:1026C0000220BDE8F883012084F8400000BF94F8A0
:1026D0004100012844D100206064002E3AD012202D
:1026E00084F8410020680069401CE06220680069AD
:1026F000401CA06266622068406920F0406021684A
:10270000486112E04346012204212046009707F069
:102710004BF8054605B10BE0616A481C6062087819
:1027200089F80000E06A401EE062E06A0028E9D112
:1027300000BF5DB94346012202212046009707F001
:1027400033F8054615B902202168C860012084F8D5
:10275000410006E0606C40F008006064012500E084
:10276000022500BF002084F8400000BF2846A8E7EB
:1027700010B501F067F90949096801F470614FF477
:10278000807292FAA2F2B2FA82F2D140044A515C0B
:10279000C840044908600846006810BD1844025843
:1027A00082C900080800002410B501F003F90749A8
:1027B000096801F07001102292FAA2F2B2FA82F2D4
:1027C000D140034A515CC84010BD0000204402586B
:1027D00082C9000870B501460022012000230024B0
:1027E0009FED811AB0EE410A9FED7F1AF0EE410A8B
:1027F0007E4D2D6805F003027C4D2D68C5F3053034
:102800007A4D2D1D2D6805F01003784D14352D6877
:10281000C5F3CC0515FB03F501EE105AB8EE411ACD
:10282000B0EE410A22B1012A4DD0022A7DD169E0E1
:102830006E4D283D2D68C5F340152DB36B4D283DD9
:102840002D68C5F3C1066A4D25FA06F4B4FBF0F510
:1028500001EE105AF8EE411A9FED661A80EE012A39
:10286000624D10352D68C5F3080501EE105AB8EE1B
:10287000411A32EE011AB7EE002A31EE021A21EEA9
:10288000811AF0EE410A1DE0594DB5FBF0F501EE5D
:10289000105AF8EE411A9FED571A80EE012A534D57
:1028A00010352D68C5F3080501EE105AB8EE411A2F
:1028B00032EE011AB7EE002A31EE021A21EE811A29
:1028C000F0EE410A5EE04C4DB5FBF0F501EE105A1A
:1028D000B8EE412A9FED471AC0EE011A434D10355C
:1028E0002D68C5F3080501EE105AB8EE411A31EE15
:1028F000811AF7EE001A31EE211A22EE011AF0EEDB
:10290000410A3FE03D4DB5FBF0F501EE105AF8EEFF
:10291000411A9FED381A80EE012A344D10352D688A
:10292000C5F3080501EE105A00E00CE0B8EE411ABC
:1029300032EE011AB7EE002A31EE021A21EE811AA8
:10294000F0EE410A1EE02C4DB5FBF0F501EE105AF9
:10295000B8EE412A9FED271AC0EE011A234D10351B
:102960002D68C5F3080501EE105AB8EE411A31EE94
:10297000811AF7EE001A31EE211A22EE011AF0EE5A
:10298000410A00BF00BF194D10352D68C5F346251B
:102990006D1C01EE105AB8EE411AC0EE811ABCEE61
:1029A000E11A81ED001A114D10352D68C5F3064569
:1029B0006D1C01EE105AB8EE411AC0EE811ABCEE41
:1029C000E11A81ED011A094D10352D68C5F3066530
:1029D0006D1C01EE105AB8EE411AC0EE811ABCEE21
:1029E000E11A81ED021A70BD00000000284402586F
:1029F0000090D0030000004600093D0040787D01B2
:102A000070B5014600220120002300249FED811AA9
:102A1000B0EE410A9FED7F1AF0EE410A7E4D2D681F
:102A200005F003027C4D2D68C5F305507A4D2D1D30
:102A30002D6805F48073784D1C352D68C5F3CC05E1
:102A400015FB03F501EE105AB8EE411AB0EE410A3B
:102A500022B1012A4DD0022A7DD169E06E4D283D78
:102A60002D68C5F340152DB36B4D283D2D68C5F37A
:102A7000C1066A4D25FA06F4B4FBF0F501EE105AD2
:102A8000F8EE411A9FED661A80EE012A624D183564
:102A90002D68C5F3080501EE105AB8EE411A32EE62
:102AA000011AB7EE002A31EE021A21EE811AF0EE79
:102AB000410A1DE0594DB5FBF0F501EE105AF8EE54
:102AC000411A9FED571A80EE012A534D18352D6893
:102AD000C5F3080501EE105AB8EE411A32EE011A9C
:102AE000B7EE002A31EE021A21EE811AF0EE410A09
:102AF0005EE04C4DB5FBF0F501EE105AB8EE412A00
:102B00009FED471AC0EE011A434D18352D68C5F3E5
:102B1000080501EE105AB8EE411A31EE811AF7EEAF
:102B2000001A31EE211A22EE011AF0EE410A3FE0BE
:102B30003D4DB5FBF0F501EE105AF8EE411A9FED50
:102B4000381A80EE012A344D18352D68C5F3080572
:102B500001EE105A00E00CE0B8EE411A32EE011A14
:102B6000B7EE002A31EE021A21EE811AF0EE410A88
:102B70001EE02C4DB5FBF0F501EE105AB8EE412ADF
:102B80009FED271AC0EE011A234D18352D68C5F3A5
:102B9000080501EE105AB8EE411A31EE811AF7EE2F
:102BA000001A31EE211A22EE011AF0EE410A00BF9E
:102BB00000BF194D18352D68C5F346256D1C01EE73
:102BC000105AB8EE411AC0EE811ABCEEE11A81ED3E
:102BD000001A114D18352D68C5F306456D1C01EE20
:102BE000105AB8EE411AC0EE811ABCEEE11A81ED1E
:102BF000011A094D18352D68C5F306656D1C01EEE7
:102C0000105AB8EE411AC0EE811ABCEEE11A81EDFD
:102C1000021A70BD00000000284402580090D00342
:102C20000000004600093D0040787D012DE9F0419B
:102C3000044600250026206800F00060B0F1006F17
:102C400030D1606E48B1B0F5801F0DD0B0F5001FD7
:102C500010D0B0F5401F15D113E0F948006840F4DA
:102C60000030F74908600FE00221201D06F0C2FD88
:102C7000054609E0022104F1240006F053FE054652
:102C800002E001E0012500BF00BF55B9EC48243047
:102C9000006820F44010616E0843E949243108605F
:102CA00000E02E43208800F48070B0F5807F2DD1A5
:102CB000606D05281AD2DFE800F0030A101718002B
:102CC000DF48006840F40030DD49086010E0002172
:102CD000201D06F08FFD05460AE0002104F12400C6
:102CE00006F020FE054603E002E001E0012500BFFA
:102CF00000BF55B9D2482430006820F00700616D4C
:102D00000843CF492431086000E02E43208800F4B6
:102D10000070B0F5007F33D1A06D802817D003DCA0
:102D200040B140281CD10CE0C02817D0B0F5807FFE
:102D300016D114E0C248006840F40030C049086071
:102D400010E00021201D06F055FD05460AE0002197
:102D500004F1240006F0E6FD054603E002E001E090
:102D6000012500BF00BF55B9B5482430006820F4E4
:102D7000E070A16D0843B2492431086000E02E43A1
:102D8000208800F48060B0F5806F38D1D4F8A400BA
:102D9000B0F5800F19D004DC50B1B0F5001F1DD183
:102DA0000DE0B0F5C00F17D0B0F5000F16D114E04C
:102DB000A348006840F40030A149086010E00021F9
:102DC000201D06F017FD05460AE0002104F124004D
:102DD00006F0A8FD054603E002E001E0012500BF82
:102DE00000BF5DB996482C30006820F46000D4F82C
:102DF000A410084392492C31086000E02E4320883B
:102E000000F40060B0F5006F38D1D4F8A800B0F13C
:102E1000007F19D004DC50B1B0F1807F1DD10DE0EE
:102E2000B0F1407F17D0B0F1806F16D114E0844824
:102E3000006840F400308249086010E00021201D45
:102E400006F0D8FC05460AE0002104F1240006F053
:102E500069FD054603E002E001E0012500BF00BF77
:102E60005DB977482C30006820F0E060D4F8A810F5
:102E7000084373492C31086000E02E43206800F0BD
:102E80000070B0F1007F27D1A06CA0B1102804D051
:102E9000202809D030280FD10CE06948006840F4A0
:102EA00000306749086009E00221201D06F0A2FCFD
:102EB000054603E002E001E0012500BF00BF55B96F
:102EC0005F482030006820F03000A16C08435C4966
:102ED0002031086000E02E43208800F48050B0F5D7
:102EE000805F36D1E06DB0F5005F19D004DC50B1E1
:102EF000B0F5805F1DD10DE0B0F5405F17D0B0F5A3
:102F0000804F16D114E04E48006840F400304C4920
:102F1000086010E00021201D06F06CFC05460AE068
:102F2000002104F1240006F0FDFC054603E002E068
:102F300001E0012500BF00BF55B9414824300068B9
:102F400020F4E040E16D08433D492431086000E091
:102F50002E43208800F40050B0F5005F34D1206E7D
:102F6000B0F5403F1DD007DC68B1B0F5803F0BD015
:102F7000B0F5003F18D10DE0B0F5802F12D0B0F5BC
:102F8000A02F11D10FE011E00121201D06F032FC2D
:102F900005460BE0012104F1240006F0C3FC0546C0
:102FA00004E003E002E001E0012500BF00BF55B9E5
:102FB00023482430006820F4E020216E0843204993
:102FC0002431086000E02E43208800F48040B0F5F2
:102FD000804F38D1D4F8AC00B0F1405F1DD007DC91
:102FE00068B1B0F1805F0BD0B0F1005F18D10DE097
:102FF000B0F1804F12D0B0F1A04F11D10FE011E02D
:103000000121201D06F0F6FB05460BE0012104F12D
:10301000240006F087FC054604E003E002E001E03E
:10302000012500BF00BF6DB905482C30006820F0B5
:10303000E040D4F8AC10084301492C31086002E0AC
:103040002C4402582E43208800F40040B0F5004F75
:1030500026D1E06E98B1B0F1805F03D0B0F1005F8F
:103060000ED106E0FA48006840F40030F8490860E4
:1030700008E00121201D06F0BDFB054602E001E04D
:10308000012500BF00BF55B9F1482430006820F089
:103090004050E16E0843EE492431086000E02E43C1
:1030A000206800F08070B0F1807F27D1606CA0B103
:1030B000012804D0022809D003280FD10CE0E448ED
:1030C000006840F40030E249086009E00221201D58
:1030D00006F090FB054603E002E001E0012500BF99
:1030E00000BF55B9DA482030006820F00300616C59
:1030F0000843D7492031086000E02E43206800F4DF
:103100008000B0F5800F7DD1D248006840F4807017
:10311000D0490860FEF7A4FD074606E0FEF7A0FDD3
:10312000C01B642801D9032505E0CA48006800F4E3
:1031300080700028F2D000BF8DBBC54844300068C5
:1031400000F44070B4F8B01001F44071884214D01B
:10315000BF484430006820F44078BD4844300068DF
:1031600040F48030BA49443108600846006820F4D1
:10317000803008600846C0F80080D4F8B000B0F590
:10318000807F15D1FEF76CFD074609E0FEF768FD6C
:10319000C01B41F28831884202D9032507E038E09C
:1031A000AB4844300068C0F340000028EED000BFB8
:1031B0004DBB00BFB4F8B00000F44070B0F5407FE4
:1031C0000ED1A3481C38006820F47C51A24AD4F8E0
:1031D000B000104041EA10109D491C39086007E01A
:1031E0009B481C38006820F47C5099491C390860C1
:1031F000974844300068B4F8B010C1F30B0108439D
:10320000934901E006E002E04431086002E02E4309
:1032100000E02E43207800F0010068B3A06F18286A
:1032200019D005DC48B1082808D0102816D10BE0C9
:10323000202811D0282811D10FE011E00121201DF4
:1032400006F0D8FA05460BE0012104F1240006F04F
:1032500069FB054604E003E002E001E0012500BF50
:1032600000BF55B97A482830006820F03800A16FB7
:10327000084377492831086000E02E43207800F0A9
:103280000200022828D1606F062815D2DFE800F07E
:1032900003040A11121311E00121201D06F0AAFAFD
:1032A00005460BE0012104F1240006F03BFB054636
:1032B00004E003E002E001E0012500BF00BF55B9D2
:1032C00063482830006820F00700616F08436049B8
:1032D0002831086000E02E43207800F00400042824
:1032E0002AD1D4F89000062815D2DFE800F00304B4
:1032F0000A11121311E00121201D06F07BFA054688
:103300000BE0012104F1240006F00CFB054604E06B
:1033100003E002E001E0012500BF00BF5DB94C48B9
:103320002C30006820F00700D4F89010084348497A
:103330002C31086000E02E43207800F02000202887
:1033400036D1D4F88C00B0F1405F1DD007DC68B1F5
:10335000B0F1805F0BD0B0F1005F18D10DE0B0F19B
:10336000804F12D0B0F1A04F11D10FE011E0002139
:10337000201D06F03FFA05460BE0022104F124006F
:1033800006F0D0FA054604E003E002E001E0012582
:1033900000BF00BF5DB92E482830006820F0E04033
:1033A000D4F88C1008432A492831086000E02E43E5
:1033B000207800F04000402836D1D4F89800B0F5CD
:1033C000406F1DD007DC68B1B0F5806F0BD0B0F551
:1033D000006F18D10DE0B0F5805F12D0B0F5A05F9E
:1033E00011D10FE011E00021201D06F003FA05467F
:1033F0000BE0022104F1240006F094FA054604E0F3
:1034000003E002E001E0012500BF00BF5DB9104804
:103410002C30006820F4E050D4F8981008430C4990
:103420002C31086000E02E43207800F080008028D6
:103430003BD1D4F89C00B0F5C04F24D00EDCA0B135
:10344000B0F5005F12D0B0F5804F1FD114E000003E
:103450002C44025800480258FFFCFF0FB0F5004F03
:1034600012D0B0F5204F11D10FE011E00021201D46
:1034700006F0C0F905460BE0022104F1240006F035
:1034800051FA054604E003E002E001E0012500BF37
:1034900000BF4DB9B248006820F46040D4F89C10D9
:1034A0000843AF49086000E02E43207800F0080090
:1034B000082816D1D4F88000B0F5805F06D102212B
:1034C00004F1240006F02EFA06430AE0A448001F87
:1034D000006820F44050D4F880100843A049091F28
:1034E0000860207800F01000102814D1D4F894005F
:1034F000B0F5807F06D1022104F1240006F012FA13
:10350000064308E09648006820F44070D4F8941010
:10351000084393490860206800F40020B0F5002FAC
:1035200026D1D4F8A00030B1B0F5803F09D0B0F575
:10353000003F0ED10CE00021201D06F05BF905468E
:1035400009E0022104F1240006F0ECF9054602E04E
:1035500001E0012500BF00BF4DB98148006820F49B
:103560004030D4F8A01008437D49086000E02E43A5
:10357000206800F48020B0F5802F2DD1D4F884008D
:10358000B0F5801F06D0B0F5001F0CD0B0F5401F7D
:1035900011D10FE072482C38006840F400307049B7
:1035A0002C39086009E0012104F1240006F0BAF981
:1035B000054602E001E0012500BF00BF5DB9684893
:1035C000001F006820F44010D4F8841008436449B8
:1035D000091F086000E02E43206800F48030B0F539
:1035E000803F24D1E06C18B1B0F5803F0FD108E0E6
:1035F0005B482C38006840F4003059492C39086089
:1036000007E00221201D06F0F5F8054601E001253E
:1036100000BF00BF55B952480C38006820F4803014
:10362000E16C08434E490C39086000E02E432068E5
:1036300000F00050B0F1005F05D1022104F1240038
:1036400006F070F90643206800F40030B0F5003F42
:1036500027D1E06FA0B1B0F5807F06D0B0F5007F34
:103660000CD0B0F5407F0CD109E03D482C38006803
:1036700040F400303A492C39086004E003E002E0ED
:1036800001E0012500BF00BF55B93548001F0068A3
:1036900020F44070E16F08433149091F086000E0E1
:1036A0002E43206800F48010B0F5801F09D12C480B
:1036B0000838006820F00040216F08432849083985
:1036C0000860206800F08050B0F1805F0AD1244883
:1036D0004838006820F48040D4F8B41008432049EA
:1036E00048390860206800F40010B0F5001F09D1C7
:1036F0001B480838006820F08070A16E0843184904
:1037000008390860206800F08040B0F1804F11D186
:1037100000BF13484838006820F400401049483979
:10372000086008460068D4F8B81008430C494839C6
:10373000086000BF206800F00040B0F1004F09D1E0
:1037400007480C38006820F04050216D08430449B8
:103750000C39086016B90020BDE8F0810120FBE7B4
:103760005844025870B504460D4600268D4800683E
:1037700000F00700A8420ED28A48006820F0070037
:103780002843884908600846006800F00700A842FE
:1037900001D0012070BD207800F00200022807D17E
:1037A0008148006820F00F00E16808437E49086006
:1037B000207800F00100002851D07B48006820F4F8
:1037C0007060A1680843784908606068022807D1E2
:1037D000754818380068C0F34040F8B90120D9E7AF
:1037E0006068032807D1704818380068C0F340604B
:1037F000A0B90120CEE76068012807D16A481838CF
:103800000068C0F3002048B90120C3E766481838B3
:103810000068C0F3800008B90120BBE7624808389F
:10382000006820F00700616808435F4908390860B4
:10383000FEF716FA06466068022811D108E0FEF786
:103840000FFA801B41F28831884201D90320A1E799
:1038500055480838006800F038001028EFD13AE0E9
:103860006068032811D108E0FEF7FAF9801B41F2E5
:103870008831884201D903208CE74B48083800681A
:1038800000F038001828EFD125E06068012811D138
:1038900008E0FEF7E5F9801B41F28831884201D942
:1038A000032077E740480838006800F0380008280F
:1038B000EFD110E008E0FEF7D3F9801B41F2883128
:1038C000884201D9032065E737480838006800F0CE
:1038D00038000028EFD13348006800F00700A84204
:1038E0000ED93048006820F0070028432D490860B1
:1038F0000846006800F00700A84201D0012049E70F
:10390000207800F00400042807D12748006820F040
:1039100070002169084324490860207800F00800FD
:10392000082809D12048001D006820F07000616956
:1039300008431D49091D0860207800F01000102878
:1039400009D11948001D006820F4E060A16908430E
:103950001549091D0860207800F02000202809D1B1
:1039600011480830006820F07000E16908430E49F2
:103970000831086000F066F80B49096801F47061CD
:103980004FF4807292FAA2F2B2FA82F2D140074A60
:10399000515CC840064908600F20FEF781F90020FD
:1039A000F8E60000002000521844025882C90008BE
:1039B0000800002410B5FEF7DBFE0949096801F094
:1039C0000F01012292FAA2F2B2FA82F2D140054A24
:1039D000515CC840044908600846006810BD0000FA
:1039E0001844025882C900080C00002410B5FFF7E3
:1039F000E1FF0749096801F07001102292FAA2F272
:103A0000B2FA82F2D140034A515CC84010BD0000B6
:103A10001C44025882C9000810B5FFF7CBFF0749C4
:103A2000096801F4E0614FF4807292FAA2F2B2FAEE
:103A300082F2D140024A515CC84010BD1C44025879
:103A400082C9000870B5012500EE905A00220121BC
:103A500000230024DFED861AB0EE610ADFED841A40
:103A6000B0EE611A0020834D2D6805F0380535B1A0
:103A7000082D15D0102D15D0182D7CD114E07D4DBA
:103A8000103D2D68C5F3401545B17A4D103D2D68A8
:103A9000C5F3C106784D25FA06F000E07648E5E06A
:103AA0007648E3E07648E1E0724D18352D6805F080
:103AB0000302704D18352D68C5F305116D4D1C3589
:103AC0002D6805F001036B4D24352D68C5F3CC0539
:103AD00015FB03F501EE905AF8EE611AB0EE610A9B
:103AE00022B1012A4FD0022A7DD16BE0614D103DF9
:103AF0002D68C5F340152DB35E4D103D2D68C5F3FF
:103B0000C1065D4D25FA06F4B4FBF1F501EE905ABD
:103B1000B8EE612ADFED5B1AC0EE212A554D203543
:103B20002D68C5F3080501EE905AF8EE611A72EEA1
:103B3000A11AF7EE002A71EEA21A62EE211AB0EE77
:103B4000611A1FE04C4DB5FBF1F501EE905AB8EE4D
:103B5000612ADFED4C1AC0EE212A464D20352D6832
:103B6000C5F3080501EE905AF8EE611A72EEA11A3B
:103B7000F7EE002A00E077E071EEA21A62EE211A59
:103B8000B0EE611A5EE03D4DB5FBF1F501EE905AE5
:103B9000B8EE612ADFED3B1AC0EE212A354D203503
:103BA0002D68C5F3080501EE905AF8EE611A72EE21
:103BB000A11AF7EE002A71EEA21A62EE211AB0EEF7
:103BC000611A3FE02E4DB5FBF1F501EE905AB8EECB
:103BD000612ADFED2C1AC0EE212A264D20352D68F2
:103BE000C5F3080500E00EE001EE905AF8EE611A08
:103BF00072EEA11AF7EE002A71EEA21A62EE211AF5
:103C0000B0EE611A1EE01D4DB5FBF1F501EE905AC4
:103C1000F8EE612ADFED1B1A80EE212A154D2035C2
:103C20002D68C5F3080501EE905AF8EE611A72EEA0
:103C3000211AB7EE002A71EE821A62EEA11AB0EED6
:103C4000611A00BF00BF0B4D20352D68C5F3462516
:103C50006D1C00EE905AF8EE601A81EE212AFCEEFF
:103C6000C21A11EE900A01E0044800BF00BF70BD07
:103C700000000000104402580090D00300093D00ED
:103C800040787D010000004670B50446002520788C
:103C900000F00100002872D0F948006800F03800F8
:103CA00010280CD0F648006800F03800182812D10F
:103CB000F3481830006800F0030002280BD1F048E8
:103CC00010380068C0F3404000286DD060680028BC
:103CD0006AD1012070BD00BF6068B0F5803F08D197
:103CE000E7481038006840F48030E5491039086032
:103CF0002EE0606868B9E2481038006820F480302F
:103D0000DF49103908600846006820F48020086008
:103D10001EE06068B0F5A02F0DD1D94810380068BA
:103D200040F48020D649103908600846006840F405
:103D3000803008600CE0D2481038006820F48030F1
:103D4000CF49103908600846006820F480200860D8
:103D500000BF6068A0B1FDF783FF054608E0FDF7EE
:103D60007FFF401B41F28831884201D90320B1E72F
:103D7000C34810380068C0F340400028EFD013E07B
:103D8000FDF76EFF054608E0FDF76AFF401B41F2B4
:103D90008831884201D903209CE7B948103800686F
:103DA000C0F340400028EFD1207800F00200022844
:103DB00047D1B348006800F0380058B1B0480068F7
:103DC00000F0380018283ED1AD481830006800F0E7
:103DD0000300B8BBAA4810380068C0F3800018B1CF
:103DE000E06808B9012075E7A5481038006820F0A0
:103DF0001900E1680843A24910390860FDF730FF57
:103E0000054606E0FDF72CFF401B022801D90320E0
:103E100060E79B4810380068C0F380000028F1D0AC
:103E200097480C38006820F47C304FF47C3292FACA
:103E3000A2F2B2FA82F221699140084390490C390A
:103E400008604AE0FFE7E06868B38D481038006812
:103E500020F01900E1680843894910390860FDF72E
:103E6000FFFE054606E0FDF7FBFE401B022801D9D8
:103E700003202FE7824810380068C0F38000002834
:103E8000F1D07F480C38006820F47C304FF47C324D
:103E900092FAA2F2B2FA82F221699140084378497B
:103EA0000C39086019E076481038006820F00100ED
:103EB000734910390860FDF7D3FE054606E0FDF7AB
:103EC000CFFE401B022801D9032003E76C481038BD
:103ED0000068C0F380000028F1D1207800F01000C5
:103EE000102877D16648006800F0380008280CD008
:103EF0006348006800F03800182823D16048183063
:103F0000006800F0030001281CD15D4810380068EB
:103F1000C0F3002020B1E069802801D00120D9E65B
:103F200057480C38006820F0F8404FF0F84292FAF9
:103F3000A2F2B2FA82F2216A9140084350490C3948
:103F4000086047E0E06958B34D481038006840F019
:103F500080004B4910390860FDF782FE054606E0F7
:103F6000FDF77EFE401B022801D90320B2E644483B
:103F700010380068C0F300200028F1D040480C3809
:103F8000006820F0F8404FF0F84292FAA2F2B2FA3C
:103F900082F2216A9140084339490C39086019E0DE
:103FA00037481038006820F0800035491039086023
:103FB000FDF756FE054606E0FDF752FE401B0228BF
:103FC00001D9032086E62E4810380068C0F300208F
:103FD0000028F1D1207800F00800082836D1606967
:103FE000D0B127486430006840F0010024496431B2
:103FF0000860FDF735FE054606E0FDF731FE401B83
:10400000022801D9032065E61D4864300068C0F32A
:1040100040000028F1D019E019486430006820F011
:104020000100174964310860FDF71AFE054606E0F5
:10403000FDF716FE401B022801D903204AE610486E
:1040400064300068C0F340000028F1D1207800F00F
:104050002000202834D1A069D8B109481038006860
:1040600040F48050064910390860FDF7F9FD054617
:1040700008E0FDF7F5FD401B022803D9032029E6DF
:1040800010440258AF480068C0F340300028F0D018
:1040900016E0AC48006820F48050AA490860FDF79B
:1040A000DFFD054606E0FDF7DBFD401B022801D9D8
:1040B00003200FE6A3480068C0F340300028F2D187
:1040C000207800F0040004287DD19F48006840F467
:1040D00080709D490860FDF7C3FD054606E0FDF7C9
:1040E000BFFD401B642801D90320F3E59648006812
:1040F00000F480700028F2D000BFA068012808D129
:1041000090487030006840F001008E4970310860BE
:104110002DE0A06868B98B487030006820F001007D
:104120008849703108600846006820F00400086083
:104130001DE0A06805280DD182487030006840F06D
:1041400004008049703108600846006840F00100B2
:1041500008600CE07B487030006820F0010079496D
:10416000703108600846006820F00400086000BF55
:10417000A068A0B1FDF774FD054608E0FDF770FDED
:10418000401B41F28831884201D90320A2E56D48E5
:1041900070300068C0F340000028EFD013E0FDF756
:1041A0005FFD054608E0FDF75BFD401B41F28831ED
:1041B000884201D903208DE5624870300068C0F361
:1041C00040000028EFD1606A00287CD05D481030A4
:1041D000006800F03800182876D0606A022874D190
:1041E0005848006820F0807056490860FDF738FD97
:1041F000054606E0FDF734FD401B022801D90320E7
:1042000068E550480068C0F340600028F2D100BF64
:10421000D4E90A1041EA00104A492831096840F2FD
:10422000F33291430843474928310860208E401EED
:10423000C0F30800616B491E4FF47E4202EA41213F
:104240000843218F491ED20102EA014108433C2163
:10425000095D491E120202EA016108433949303101
:10426000086000BF081D00684FF6F87188434FF6DC
:10427000F87292FAA2F2B2FA82F2A16C914008436B
:104280003049343108602F482C30006820F00C0091
:10429000216C08432B492C3108600846006820F047
:1042A0000200616C084327492C3108600846006809
:1042B00040F4803008600846006840F40030086030
:1042C0000846006802E03BE038E01FE040F4802050
:1042D00008600846006840F001000860194800685E
:1042E00040F0807017490860FDF7BAFC054606E00B
:1042F000FDF7B6FC401B022801D90320EAE411486F
:104300000068C0F340600028F2D019E00D48006852
:1043100020F080700B490860FDF7A2FC054606E01E
:10432000FDF79EFC401B022801D90320D2E405487A
:104330000068C0F340600028F2D101E00120C9E428
:104340000020C7E4004402580048025870B50446F3
:104350000D460CB9012070BD94F82C0028B900203E
:1043600084F82D00204600F019F8022084F82C0073
:10437000211D2068FCF77DFD2946D4E90002FCF7E9
:10438000CDFD0548006840F0004003490860012069
:1043900084F82C000020DEE70040005210B586B003
:1043A000044600BF4648006840F0020044490860E7
:1043B0000846006800F00200009000BF00BF00BF88
:1043C0003F482038006840F480503D49203908605B
:1043D0000846006800F48050009000BF00BF00BF96
:1043E00037481438006840F0040035491439086033
:1043F0000846006800F00400009000BF00BF00BF46
:104400000846006840F0080008600846006800F0B0
:104410000800009000BF00BF00BF0846006840F0E1
:10442000100008600846006800F01000009000BF0F
:1044300000BF00BF0846006840F020000860084642
:10444000006800F02000009000BF00BF00BF0846D9
:10445000006840F0400008600846006800F0400036
:10446000009000BF00BF0D200190022002900120AB
:104470000390032004900C20059001A91148FDF73A
:10448000BBFA4CF20370019001A90F48FDF7B4FA92
:104490004FF68370019001A90C48FDF7ADFA4FF675
:1044A0003F00019001A90A48FDF7A6FA48F237102B
:1044B000019001A90748FDF79FFA06B010BD000062
:1044C000F444025800080258000C02580010025828
:1044D000001402580018025870B504460D4694F8AE
:1044E0002C00022800D170BD022084F82C0029463F
:1044F0002068FCF7F8FC012084F82C000020F2E78B
:1045000070B504460D46164694F82C00022800D1DA
:1045100070BD022084F82C00324629462068FCF742
:10452000E9FC2868022803D1052084F82C0002E069
:10453000012084F82C000020EAE7000070B5044652
:10454000002500260CB9012070BD606A00B900BFCB
:10455000A06AB0F5800F00D100BF8E492068884264
:104560000CD08D492068884208D08C492068884248
:1045700004D0E0680F2801D90120E5E7204605F0C6
:1045800039FC064683492068884209D08249206860
:10459000884205D081492068884201D0082E0DD874
:1045A0007C492068884207D07B492068884203D034
:1045B0007A492068884203D1102E01D90120C3E72F
:1045C000A06AB0F5800F1DD17249206888420DD0D5
:1045D00071492068884209D070492068884205D016
:1045E000206BB0F5702F01D90120ADE7206B10B919
:1045F000A089050400E0256BE068B0EB154F01D9F8
:104600000120A1E794F8810028B9002084F88000F7
:10461000204600F0C5F8022084F881002068006878
:1046200020F0010021680860A069B0F1806F0BD113
:104630006068B0F5800F07D1A06B28B920680068CA
:1046400040F4805021680860A16AE069084328436B
:10465000E16B0843E168084321688860616A606B28
:104660000843A16B0843A1690843216908436169B4
:104670000843216A084361680843E16C0843A16864
:104680000843A16C0843A16D08432168C860A06A73
:10469000B0F5800F4DD1206C012806D1206800684C
:1046A00040F400402168086005E02068006820F4BC
:1046B000004021680860606C012806D1206800680D
:1046C00040F480402168086005E02068006820F41C
:1046D0008040216808602F49206888420AD02E490E
:1046E0002068884206D02D492068884202D0B5F55E
:1046F000702F0ED027492068884207D026492068AD
:10470000884203D025492068884209D1B5F5F81FB1
:1047100006D12068006840F400502168086005E078
:104720002068006820F40050216808602168E06A71
:104730000864606888B9A06A38B92068806820F485
:10474000C05040F40060216888602068806820F4D0
:10475000C06040F48060216888602068006D20F0AF
:10476000010021680865606800F48000B0F5800FE2
:1047700007D12068C06820F00040616D08432168BF
:10478000C8600020C4F88400012084F88100002063
:10479000DAE600000030014000380040003C0040F4
:1047A00010B5B6B0044600BF1A48006840F00200D9
:1047B000184908600846006800F00200019000BF38
:1047C00000BF00BF13480830006840F48040114922
:1047D000083108600846006800F48040019000BF7E
:1047E00000BF4FF4805002900020199002A8FEF7FD
:1047F0001DFA4FF460403190022032900120339036
:10480000032034900520359031A90348FDF7F4F8D2
:1048100036B010BDE0440258000402582DE9F84FAC
:104820000446884691461D460A9E0027BA4600BFA8
:1048300094F88000012802D10220BDE8F88F012001
:1048400084F8800000BFFDF70BFA074694F881005A
:10485000012812D06068B0F5800F05D1A06818B9A2
:1048600094F88100042808D04FF0020A00BF00200D
:1048700084F8800000BF5046DFE7B8F1000F03D096
:10488000B9F1000F00D045B94FF0010A00BF002078
:1048900084F8800000BF5046CFE794F881000428D8
:1048A00002D0052084F881000020C4F88400C4F8F8
:1048B0006490A4F86A50A4F86850C4F85C80A4F826
:1048C0006250A4F8605020676067206840686FF30A
:1048D0000F002843216848602068006840F001000C
:1048E000216808606068B0F5800F05D12068006815
:1048F00040F4007021680860E0680F284CD942E05D
:10490000B4F8620088B12068406900F00200022813
:104910000BD1E06D006821680862E06D001DE06564
:10492000B4F86200401EA4F86200B4F86A0088B1CE
:104930002068406948F20801084058B12068006BBF
:10494000616E0860606E001D6066B4F86A00401E0B
:10495000A4F86A00701CB0B1FDF782F9C01BB04228
:1049600011D3204605F0C8F900BF002084F880006C
:1049700000BFD4F8840040F48070C4F884000120A3
:1049800084F8810059E7B4F862000028B8D1B4F87F
:104990006A000028B4D10FE1E068072871D966E009
:1049A000B4F8620020B32068406900F002000228D9
:1049B0001ED1B4F8620001280ED9E06B60B1E06D41
:1049C000006821680862E06D001DE065B4F86200CF
:1049D000801EA4F862000BE0E06D00882168088466
:1049E000E06D801CE065B4F86200401EA4F862002F
:1049F000B4F86A0010B32068406900F46040E8B180
:104A00002068406900F4004060B12068006B616E6E
:104A10000860606E001D6066B4F86A00801EA4F82D
:104A20006A000BE02068008E616E0880606E801C5A
:104A30006066B4F86A00401EA4F86A00701CB0B149
:104A4000FDF70EF9C01BB04211D3204605F054F912
:104A500000BF002084F8800000BFD4F8840040F438
:104A60008070C4F88400012084F88100E5E6B4F881
:104A70006200002894D1B4F86A00002890D19BE02D
:104A8000FFE790E0B4F8620058B32068406900F096
:104A90000200022833D1B4F8620003280FD9E06B7A
:104AA00040280CD9E06D006821680862E06D001DA7
:104AB000E065B4F86200001FA4F862001FE0B4F8DB
:104AC000620001280ED9E06B60B1E06D00882168BA
:104AD0000884E06D801CE065B4F86200801EA4F8D4
:104AE00062000CE0E06D0078216881F82000E06D44
:104AF000401CE065B4F86200401EA4F86200B4F8FF
:104B00006A0048B32068406900F4604020B3206820
:104B1000406900F4004060B12068006B616E08607D
:104B2000606E001D6066B4F86A00001FA4F86A0099
:104B300020E02068406900F4C040B0F5005F0CD967
:104B40002068008E616E0880606E801C6066B4F81C
:104B50006A00801EA4F86A000CE0206890F830001B
:104B6000616E0870606E401C6066B4F86A00401E9A
:104B7000A4F86A00701CB0B1FDF772F8C01BB04217
:104B800011D3204605F0B8F800BF002084F880005B
:104B900000BFD4F8840040F48070C4F88400012081
:104BA00084F8810049E6B4F8620000287FF46AAF17
:104BB000B4F86A000028F9D13B46002208212046BB
:104BC000009605F024F928B1D4F8840040F02000C4
:104BD000C4F88400204605F08FF800BF002084F858
:104BE000800000BF012084F88100D4F8840008B15F
:104BF000012022E6002020E670B504460E46154648
:104C00000CB9012070BD94F8450028B9002084F843
:104C10004400204600F024F804F108012068FCF765
:104C2000B9F83146A2682068FCF7F4F82946E36A2F
:104C3000D4E90102FCF78AF8A168206850F8210045
:104C400040F00100A268216841F822000348006892
:104C500040F00040014908600020D3E700400052C6
:104C600010B586B0044600BF2048006840F480506C
:104C70001E4908600846006800F48050009000BF9C
:104C800000BF00BF19480C30006840F00800174909
:104C90000C3108600846006800F00800009000BF72
:104CA00000BF00BF0846006840F0100008600846DA
:104CB000006800F01000009000BF00BF4EF2B3701B
:104CC00001900220029001200390032004900C2008
:104CD000059001A90648FCF78FFE4FF68070019001
:104CE00001A90448FCF788FE06B010BDD444025860
:104CF000000C025800100258042808D14FF0E0219F
:104D0000096941F004014FF0E022116107E04FF022
:104D1000E021096921F004014FF0E02211617047A0
:104D200070B504462546681EB0F1807F01D301208E
:104D30000FE0681E4FF0E02148610F214FF0FF3077
:104D400006F0BEF900204FF0E021886107200861DD
:104D5000002070BD10B504460CB9012010BD94F8B8
:104D60003D0028B9002084F83C00204600F00CF8F3
:104D7000022084F83D00211D206805F055F901202E
:104D800084F83D000020E9E7704701460868C068E4
:104D900040F001000A68D0600868008840F0010017
:104DA0000A68108000207047704770470146002253
:104DB000002391F8792091F87A3042EA0300704795
:104DC0002DE9F04104462068C5692068076820681D
:104DD000866805F00F08B8F1000F0DD105F020002E
:104DE00050B107F0200010B906F0805020B12046E5
:104DF00005F089FABDE8F081B8F1000F72D05D4886
:104E0000304018B907F4907000287AD005F00100FE
:104E100048B107F4807030B1012021680862E06F6A
:104E200040F00100E06705F0020048B106F0010023
:104E300030B1022021680862E06F40F00400E067B2
:104E400005F0040048B106F0010030B104202168EB
:104E50000862E06F40F00200E06705F0080078B1FA
:104E600007F0200028B906F0805010B906F00100C4
:104E700030B1082021680862E06F40F00800E06768
:104E8000E06F70B305F0200040B107F0200010B9CA
:104E900006F0805010B1204605F035FAE06F00F0C2
:104EA000080020B92068806800F0400018B3204650
:104EB00005F009FA2068806800F04000B8B1206869
:104EC000806820F0400021688860606F58B12A48EF
:104ED000616F0865606FFCF709FD10B1606F016DCF
:104EE00088470DE00DE02046FFF75FFF08E0204611
:104EF000FFF75BFF04E02046FFF757FF0020E06765
:104F000078E705F4801078B106F4800060B14FF4C2
:104F1000801021680862202084F8790084F87A00E3
:104F20002046FFF741FF65E705F0800048B107F034
:104F3000800010B906F4000018B1204605F0FAFE12
:104F400058E705F0400030B107F0400018B12046A6
:104F500005F0C9F94EE705F4000040B107F08040C4
:104F600028B12068006820F080402168086000BFF8
:104F700040E7000001000010AFA2000810B5044691
:104F80000CB9012010BDA06900B100E000BF94F889
:104F9000790028B9002084F87800204600F02AF82B
:104FA000242084F879002068006820F0010021683E
:104FB0000860204605F0ECF9012800D1E2E7606BBB
:104FC00010B1204605F0C4F82068406820F49040F5
:104FD000216848602068806820F02A002168886085
:104FE0002068006840F0010021680860204605F054
:104FF00024F9C7E710B586B00446214920688842E5
:105000003BD100BF1F48006840F001001D49086007
:105010000846006800F00100009000BF00BF00BF1C
:1050200018481030006840F0100016491031086030
:105030000846006800F01000009000BF00BF4FF469
:105040000070019002200290012003900220049041
:105050000720059001A90C48FCF7CEFC4FF48060B6
:10506000019001A90848FCF7C7FC2520FDF712F9BB
:10507000032211462520FDF71DF906B010BD0000E2
:1050800000100140E04402580000025810B50346E9
:1050900093F87A00202867D101B10AB9012010BD28
:1050A00000BF93F87800012801D10220F7E7012022
:1050B00083F8780000BF5966A3F86820A3F86A2037
:1050C00000BF9868B0F5805F0AD1186920B940F236
:1050D000FF10A3F86C001CE0FF20A3F86C0018E0A0
:1050E000986848B9186918B9FF20A3F86C0010E057
:1050F0007F20A3F86C000CE09868B0F1805F08D1C5
:10510000186918B97F20A3F86C0002E03F20A3F8CB
:105110006C0000BF0020D867222083F87A0000BF0F
:10512000002083F8780000BF1868806840F0010014
:105130001C68A0601868006800F0005060B1186832
:10514000006840F480701C6820601868806840F037
:1051500080501C68A06005E01868006840F49070FA
:105160001C68206000209AE7022098E71D4A016829
:10517000914236D11C49098801F4004189BB1A4982
:10518000098801F4804171B1184909780A2903D0CE
:105190000021154A118024E01349098841F4004197
:1051A000114A11801DE0114909780D2906D10E49D7
:1051B000098841F480410C4A118012E00B490978BA
:1051C000094A1288C2F30D02094B9954064909880D
:1051D000491C054A118011460988C72901DD0021B3
:1051E0001180704700100140180000241A000024AC
:1051F00040020024704700BFFEE7000000B587B002
:1052000000BF1A48006840F00100184908600846CD
:10521000006800F00100019000BF00BF00BF084619
:10522000006840F0800008600846006800F08000D8
:10523000019000BF00BF01200290002003900220D7
:1052400004900320059002A90948FCF7D5FB0C2027
:10525000029000200390012004900320059002A9F1
:105260000448FCF7C9FB07B000BD0000E044025849
:1052700000000258001C025870B5044600260D4874
:1052800005880D48006818B1204602F091FD0FE036
:105290000848408845430021084602F097FC02F088
:1052A00049FD002602E005490C80761CAE42FAD387
:1052B00070BD0000080400242005002400000860E0
:1052C00010B504465C4884715C48006850B12046C3
:1052D00002F098FD5948C08A574908805748008B0A
:1052E000488010BD002C51D1F020534908804FF464
:1052F000A07048800846808849F24131884205D034
:105300004D48808845F21031884214D12C204A49FA
:1053100008812A2048812B2088810846808845F210
:105320001031884206D14FF4A070434908804FF4F1
:10533000F07048807BE04048808845F210518842F8
:1053400010D14FF430503C4908814FF42850488127
:105350004FF42C5088814FF4F07008804FF448705F
:10536000488064E03448808841F6631188425ED109
:105370002C20314908812B2048812A2088814FF434
:10538000F07008804FF44870488050E04FF4A070EF
:1053900029490880F02048800846808849F2413138
:1053A000884205D02448808845F21031884207D1D0
:1053B0002C20214908812A2048812B20888129E03E
:1053C0001D48808845F21051884210D14FF430506A
:1053D000194908814FF4285048814FF42C50888196
:1053E0004FF4487008804FF4F070488012E0124883
:1053F000808841F6631188420CD12C200E49088127
:105400002A2048812B2088814FF4487008804FF46F
:10541000F07048800848808845F21031884206D1F3
:105420004FF4F070044908804FF4A07048800020C9
:1054300002F092FA00BF54E708040024200500247B
:1054400000B595B002F0ECFFFE49888008468088E0
:1054500018B102F091FD02F0E4B900BFFA4800680B
:1054600040F00200F84908600846006800F00200B9
:10547000019000BF00BF20201090012011901290D9
:105480000320139010A9F148FCF7B6FA02F00AFACB
:10549000EF48F0490860F04848600020886000212B
:1054A000EC48C16001611021416100218161C1614D
:1054B00001624FF480514162002181624FF48041CA
:1054C000C1620021016341634FF4801181631120A7
:1054D000099000200A9055200B9000200F90152075
:1054E000029000200390152004900020089002AA4A
:1054F00009A9D848FFF780FB322005F04FFED320E2
:1055000002F00CFC02F0F6F9CE49888002F0F2F9C4
:10551000CC49888002F0EEF9CA4988800846808824
:105520004FF6FF7101EA0020C649888002F0E2F9D7
:10553000C44989880843C34988800846808849F25D
:105540004131884278D0D42002F0E8FB02F0D2F951
:10555000BC49888002F0CEF9BA49888002F0CAF9C5
:10556000B8498880084680884FF6FF7101EA00201C
:10557000B449888002F0BEF9B24989880843B1492C
:1055800088800846808845F21031884254D04FF414
:105590005A4002F0C3FB02F0ADF9AA4988804FF4EB
:1055A0005B4002F0BBFB02F0A5F9A64988800846E3
:1055B00080884FF6FF7101EA0020A24988804FF4ED
:1055C0005C4002F0ABFB02F095F99E4989880843E4
:1055D0009C49888008468088B0F5004F02D145F28A
:1055E000105088809748808845F21051884223D017
:1055F000A12002F093FB02F07DF99249888002F02D
:1056000079F990498880084680884FF6FF7101EA51
:1056100000208C49888002F06DF98A498988084306
:10562000884988800846808845F26171884203D1A4
:1056300041F66310834988808248808849F241316D
:1056400088427CD1CF2002F069FB002002F05AFB97
:10565000C12002F057FB302002F054FBED2002F095
:105660005DFB642002F04EFB032002F04BFB122096
:1056700002F048FB812002F045FBE82002F04EFBDF
:10568000852002F03FFB102002F03CFB7A2002F064
:1056900039FBCB2002F042FB392002F033FB2C20F7
:1056A00002F030FB002002F02DFB342002F02AFB38
:1056B000022002F027FBF72002F030FB202002F04E
:1056C00021FBEA2002F02AFB002002F01BFB002055
:1056D00002F018FBC02002F021FB1B2002F012FB9D
:1056E000C12002F01BFB012002F00CFBC52002F0E0
:1056F00015FB302002F006FB302002F003FBC72030
:1057000002F00CFBB72002F0FDFA362002F006FB97
:10571000482002F0F7FA3A2002F000FB552002F090
:10572000F1FAB12002F0FAFA002002F0EBFA1A20A6
:1057300002F0E8FAB62002F0F1FA0A2000E0A5E053
:1057400002F0E0FAA22002F0DDFAF22002F0E6FA1E
:10575000002002F0D7FA262002F0E0FA012002F041
:10576000D1FAE02002F0DAFA0F2002F0CBFA2A2078
:1057700002F0C8FA282002F0C5FA082002F0C2FAA6
:105780000E2002F0BFFA082002F0BCFA542002F00A
:10579000B9FAA92002F0B6FA432002F0B3FA0A20BF
:1057A00002F0B0FA0F2002F0ADFA002002F0AAFADF
:1057B000002002F0A7FA002002F0A4FA002002F074
:1057C000A1FAE12002F0AAFA002002F09BFA1520CB
:1057D00002F098FA172002F095FA072002F092FAE8
:1057E000112002F08FFA062002F08CFA2B2002F032
:1057F00089FA562002F086FA3C2002F083FA05204E
:1058000002F080FA102002F07DFA0F2002F07AFAFE
:105810003F2002F077FA3F2002F074FA0F2002F0E6
:1058200071FA2B2002F07AFA002002F06BFA0020C5
:1058300002F068FA012002F065FA3F2002F062FAF5
:105840002A200BE008040024E04402580004025817
:1058500000400052BC0300240441005202F05EFAF2
:10586000002002F04FFA002002F04CFA002002F073
:1058700049FAEF2002F046FA112002F04FFA7820A0
:1058800005F08CFC292002F049FAE4E5FE48808806
:1058900045F21031884240F07C87ED2002F03EFA5C
:1058A000012002F02FFAFE2002F02CFAEE2002F086
:1058B00035FADE2002F026FA212002F023FAF12048
:1058C00002F02CFA012002F01DFADF2002F026FA85
:1058D000102002F017FAC42002F020FA8F2002F004
:1058E00011FAC62002F01AFA002002F00BFAE220A8
:1058F00002F008FAE22002F005FAE22002F002FAD1
:10590000BF2002F00BFAAA2002F0FCF9B02002F04E
:1059100005FA0D2002F0F6F9002002F0F3F90D204F
:1059200002F0F0F9002002F0EDF9112002F0EAF99E
:10593000002002F0E7F9192002F0E4F9002002F05B
:10594000E1F9212002F0DEF9002002F0DBF92D2040
:1059500002F0D8F9002002F0D5F93D2002F0D2F98A
:10596000002002F0CFF95D2002F0CCF9002002F017
:10597000C9F95D2002F0C6F9002002F0C3F9B12098
:1059800002F0CCF9802002F0BDF9002002F0BAF953
:105990008B2002F0B7F9002002F0B4F9962002F053
:1059A000B1F9002002F0AEF9B22002F0B7F9002000
:1059B00002F0A8F9002002F0A5F9022002F0A2F9F5
:1059C000002002F09FF9032002F09CF9002002F071
:1059D00099F9B32002F0A2F9002002F093F9002017
:1059E00002F090F9002002F08DF9002002F08AF90F
:1059F000002002F087F9002002F084F9002002F074
:105A000081F9002002F07EF9002002F07BF90020ED
:105A100002F078F9002002F075F9002002F072F926
:105A2000002002F06FF9002002F06CF9002002F073
:105A300069F9002002F066F9002002F063F9002005
:105A400002F060F9002002F05DF9002002F05AF93E
:105A5000002002F057F9002002F054F9002002F073
:105A600051F9002002F04EF9B42002F057F98B20D2
:105A700002F048F9002002F045F9962002F042F9C0
:105A8000002002F03FF9A12002F03CF9002002F0D2
:105A900039F9B52002F042F9022002F033F9002072
:105AA00002F030F9032002F02DF9002002F02AF96B
:105AB000042002F027F9002002F024F9B62002F0B9
:105AC0002DF9002002F01EF9002002F01BF9B7208A
:105AD00002F024F9002002F015F9002002F012F97A
